{
	"data": {
		"bytecode": {
			"linkReferences": {},
			"object": "60806040523480156200001157600080fd5b50604051620020313803806200203183398101604081905262000034916200010d565b6200003f33620000a0565b670de0b6b3a764000060095567016345785d8a0000600855612a30600755601e6004556005600355600180546001600160a01b039283166001600160a01b031991821617909155600280549390921692169190911790554260065562000145565b600080546001600160a01b038381166001600160a01b0319831681178455604051919092169283917f8be0079c531659141344cd1fd0a4f28419497f9722a3daafe3b4186f6b6457e09190a35050565b80516001600160a01b03811681146200010857600080fd5b919050565b600080604083850312156200012157600080fd5b6200012c83620000f0565b91506200013c60208401620000f0565b90509250929050565b611edc80620001556000396000f3fe6080604052600436106101e35760003560e01c8063715018a611610102578063ac427a6611610095578063d430e34a11610064578063d430e34a146105b1578063dab84ee7146105e6578063e884269a14610606578063f2fde38b1461061c57600080fd5b8063ac427a661461052e578063b217b2ca1461055b578063c2ce5e9a1461057b578063d0841f221461059b57600080fd5b80638cdb442f116100d15780638cdb442f146104b05780638da5cb5b146104d05780639d979680146104ee578063a424e9a31461050e57600080fd5b8063715018a6146104385780637578abb21461044d578063766718081461047a57806379db71b81461049057600080fd5b80634c66c0391161017a57806365d5426e1161014957806365d5426e1461039d5780636655ad41146103b357806366f0d43d146103e0578063680f77491461041857600080fd5b80634c66c039146103235780634fae031b146103395780634ff0876a1461034c5780635b75e3f31461036257600080fd5b8063375b3c0a116101b6578063375b3c0a146102a857806341c0e1b5146102cc57806348e72aa9146102e15780634c14f0e5146102f657600080fd5b80630e88bf9c146101e85780632a5d2cd01461021e578063313d2ffd1461024057806333beadbe14610288575b600080fd5b3480156101f457600080fd5b50610208610203366004611b92565b61063c565b6040516102159190611bf6565b60405180910390f35b34801561022a57600080fd5b5061023e610239366004611c17565b6106e8565b005b34801561024c57600080fd5b5061027a61025b366004611c17565b600b602052600090815260409020805460019091015460ff9091169082565b604051610215929190611c30565b34801561029457600080fd5b5061023e6102a3366004611c17565b610759565b3480156102b457600080fd5b506102be60085481565b604051908152602001610215565b3480156102d857600080fd5b5061023e610788565b3480156102ed57600080fd5b5061023e6107b5565b34801561030257600080fd5b50610316610311366004611c5a565b6109b2565b6040516102159190611c7d565b34801561032f57600080fd5b506102be60095481565b61023e610347366004611cca565b610ac8565b34801561035857600080fd5b506102be60075481565b34801561036e57600080fd5b5061038261037d366004611c5a565b610df6565b60408051825181526020928301519281019290925201610215565b3480156103a957600080fd5b506102be60045481565b3480156103bf57600080fd5b506102be6103ce366004611ce5565b600a6020526000908152604090205481565b3480156103ec57600080fd5b50600154610400906001600160a01b031681565b6040516001600160a01b039091168152602001610215565b34801561042457600080fd5b5061023e610433366004611c17565b610ee4565b34801561044457600080fd5b5061023e610f64565b34801561045957600080fd5b506102be610468366004611ce5565b60106020526000908152604090205481565b34801561048657600080fd5b506102be60055481565b34801561049c57600080fd5b5061023e6104ab366004611c17565b610f9a565b3480156104bc57600080fd5b5061023e6104cb366004611c17565b61110a565b3480156104dc57600080fd5b506000546001600160a01b0316610400565b3480156104fa57600080fd5b506102be610509366004611c5a565b61117b565b34801561051a57600080fd5b506102be610529366004611c5a565b611191565b34801561053a57600080fd5b5061054e610549366004611ce5565b6112a5565b6040516102159190611d00565b34801561056757600080fd5b5061023e610576366004611ce5565b611311565b34801561058757600080fd5b5061023e610596366004611c17565b6113a4565b3480156105a757600080fd5b506102be60065481565b3480156105bd57600080fd5b506105d16105cc366004611c17565b611424565b60408051928352602083019190915201610215565b3480156105f257600080fd5b50600254610400906001600160a01b031681565b34801561061257600080fd5b506102be60035481565b34801561062857600080fd5b5061023e610637366004611ce5565b61177d565b60408051808201909152600080825260208201528260055481111561067c5760405162461bcd60e51b815260040161067390611d38565b60405180910390fd5b6000848152600c602090815260408083206001600160a01b03871684529091529081902081518083019092528054829060ff1660028111156106c0576106c0611bbe565b60028111156106d1576106d1611bbe565b815260200160018201548152505091505092915050565b6000546001600160a01b031633146107125760405162461bcd60e51b815260040161067390611d5d565b600081116107545760405162461bcd60e51b815260206004820152600f60248201526e2bb937b733902fb23ab930ba34b7b760891b6044820152606401610673565b600755565b6000546001600160a01b031633146107835760405162461bcd60e51b815260040161067390611d5d565b600955565b6000546001600160a01b031633146107b25760405162461bcd60e51b815260040161067390611d5d565b33ff5b6000546001600160a01b031633146107df5760405162461bcd60e51b815260040161067390611d5d565b6005546000908152600d60209081526040808320600284528083528184206001908101548186529190935292200154111561082d5761081e6001611818565b610828600261192c565b610959565b6005546000908152600d6020908152604080832060028452808352818420600190810154818652919093529220015410156108765761086c6002611818565b610828600161192c565b6005546000818152600d6020818152604080842060018086529252832054939192916108a191611da8565b81526020019081526020016000206000600160028111156108c4576108c4611bbe565b60028111156108d5576108d5611bbe565b81526020808201929092526040908101600090812093909355600554808452600d80845282852060028652909352908320549290610914906001611da8565b8152602001908152602001600020600060028081111561093657610936611bbe565b600281111561094757610947611bbe565b81526020810191909152604001600020555b7f4785e7ec09a23f6def2c8b8390e835f9672f2b7de0c8a0246094c386748b781f60055460405161098c91815260200190565b60405180910390a16001600560008282546109a79190611da8565b909155505042600655565b6060826005548111156109d75760405162461bcd60e51b815260040161067390611d38565b8260018160028111156109ec576109ec611bbe565b1480610a0957506002816002811115610a0757610a07611bbe565b145b610a255760405162461bcd60e51b815260040161067390611dc0565b6000858152600e6020526040812090856002811115610a4657610a46611bbe565b6002811115610a5757610a57611bbe565b8152602001908152602001600020805480602002602001604051908101604052809291908181526020018280548015610ab957602002820191906000526020600020905b81546001600160a01b03168152600190910190602001808311610a9b575b50505050509250505092915050565b806001816002811115610add57610add611bbe565b1480610afa57506002816002811115610af857610af8611bbe565b145b610b165760405162461bcd60e51b815260040161067390611dc0565b600854341015610b575760405162461bcd60e51b815260206004820152600c60248201526b15dc9bdb99c8185b5bdd5b9d60a21b6044820152606401610673565b600754600654610b679190611da8565b4210610ba65760405162461bcd60e51b815260206004820152600e60248201526d115c1bd8da08199a5b9a5cda195960921b6044820152606401610673565b6005546000908152600c60209081526040808320338452909152812090815460ff166002811115610bd957610bd9611bbe565b1415610c8f5780548390829060ff19166001836002811115610bfd57610bfd611bbe565b02179055506005546000908152600e6020526040812090846002811115610c2657610c26611bbe565b6002811115610c3757610c37611bbe565b8152602080820192909252604090810160009081208054600181810183559183528483200180546001600160a01b031916339081179091558252600f8452918120600554815493840182559082529290200155610cf8565b826002811115610ca157610ca1611bbe565b815460ff166002811115610cb757610cb7611bbe565b14610cf85760405162461bcd60e51b81526020600482015260116024820152704f7468657220706f6f6c206265666f726560781b6044820152606401610673565b34816001016000828254610d0c9190611da8565b90915550506005546000908152600d602052604081203491856002811115610d3657610d36611bbe565b6002811115610d4757610d47611bbe565b81526020019081526020016000206001016000828254610d679190611da8565b909155505060095415610d9c57600954336000908152600a602052604081208054909190610d96908490611da8565b90915550505b7f6cca775b324610e5248b7148e434ba483594805307a21abfd0e62337833dab19836002811115610dcf57610dcf611bbe565b6040805160ff909216825233602083015234908201526060015b60405180910390a1505050565b604080518082019091526000808252602082015282600554811115610e2d5760405162461bcd60e51b815260040161067390611d38565b826001816002811115610e4257610e42611bbe565b1480610e5f57506002816002811115610e5d57610e5d611bbe565b145b610e7b5760405162461bcd60e51b815260040161067390611dc0565b6000858152600d6020526040812090856002811115610e9c57610e9c611bbe565b6002811115610ead57610ead611bbe565b8152602001908152602001600020604051806040016040529081600082015481526020016001820154815250509250505092915050565b6000546001600160a01b03163314610f0e5760405162461bcd60e51b815260040161067390611d5d565b600081118015610f1f575060648111155b610f5f5760405162461bcd60e51b815260206004820152601160248201527057726f6e67205f70657263656e7461676560781b6044820152606401610673565b600455565b6000546001600160a01b03163314610f8e5760405162461bcd60e51b815260040161067390611d5d565b610f986000611a29565b565b336000908152600a6020526040902054801561106b57336000908152600a60205260408120556001546001600160a01b03166323b872dd610fe36000546001600160a01b031690565b6040516001600160e01b031960e084901b1681526001600160a01b03909116600482015233602482015260448101849052606401602060405180830381600087803b15801561103157600080fd5b505af1158015611045573d6000803e3d6000fd5b505050506040513d601f19601f820116820180604052508101906110699190611de4565b505b60008061107784611424565b909250905081156110bf57336000818152601060205260408082208490555184156108fc0291859190818181858888f193505050501580156110bd573d6000803e3d6000fd5b505b821580156110cb575081155b156111045760405162461bcd60e51b8152602060048201526009602482015268139bc81c995dd85c9960ba1b6044820152606401610673565b50505050565b6000546001600160a01b031633146111345760405162461bcd60e51b815260040161067390611d5d565b600081116111765760405162461bcd60e51b815260206004820152600f60248201526e57726f6e67205f6d696e5374616b6560881b6044820152606401610673565b600855565b600061118783836109b2565b5190505b92915050565b6000826005548111156111b65760405162461bcd60e51b815260040161067390611d38565b8260018160028111156111cb576111cb611bbe565b14806111e8575060028160028111156111e6576111e6611bbe565b145b6112045760405162461bcd60e51b815260040161067390611dc0565b6000858152600d602052604081209085600281111561122557611225611bbe565b600281111561123657611236611bbe565b815260200190815260200160002060010154600d6000878152602001908152602001600020600086600281111561126f5761126f611bbe565b600281111561128057611280611bbe565b81526020019081526020016000206000015461129c9190611da8565b95945050505050565b6001600160a01b0381166000908152600f602090815260409182902080548351818402810184019094528084526060939283018282801561130557602002820191906000526020600020905b8154815260200190600101908083116112f1575b50505050509050919050565b6000546001600160a01b0316331461133b5760405162461bcd60e51b815260040161067390611d5d565b6001600160a01b0381166113825760405162461bcd60e51b815260206004820152600e60248201526d57726f6e67205f6164647265737360901b6044820152606401610673565b600280546001600160a01b0319166001600160a01b0392909216919091179055565b6000546001600160a01b031633146113ce5760405162461bcd60e51b815260040161067390611d5d565b6000811180156113df575060648111155b61141f5760405162461bcd60e51b815260206004820152601160248201527057726f6e67205f70657263656e7461676560781b6044820152606401610673565b600355565b336000908152600f6020908152604080832080548251818502810185019093528083528493849392919083018282801561147d57602002820191906000526020600020905b815481526020019060010190808311611469575b5050505050905060008151116114c05760405162461bcd60e51b815260206004820152600860248201526709cde40cae0dec6d60c31b6044820152606401610673565b33600090815260106020526040902054815181106115115760405162461bcd60e51b815260206004820152600e60248201526d0aee4dedcce40e6e8c2e4e892c8f60931b6044820152606401610673565b600085156115345760016115258784611da8565b61152f9190611e06565b611542565b600183516115429190611e06565b9050825181106115845760405162461bcd60e51b815260206004820152600d60248201526c0aee4dedcce40e6e8dee092c8f609b1b6044820152606401610673565b60055483828151811061159957611599611e1d565b602002602001015114156115f157600081116115e35760405162461bcd60e51b8152602060048201526009602482015268139bc81c995dd85c9960ba1b6044820152606401610673565b806115ed81611e33565b9150505b6115fc816001611da8565b9350815b81811161177457600084828151811061161b5761161b611e1d565b6020908102919091018101516000818152600c835260408082203383528452808220838352600b909452902082549193509060ff16600281111561166157611661611bbe565b815460ff16600281111561167757611677611bbe565b141561172457805460009061169090859060ff16611a79565b905060006001835460ff1660028111156116ac576116ac611bbe565b146116b85760016116bb565b60025b905060006116c98683611aa5565b84549091506000906116df90889060ff16611af0565b9050600068056bc75e2d63100000826116f88588611da8565b6117029190611e4a565b61170c9190611e69565b9050611718818f611da8565b9d50505050505061175e565b6000815460ff16600281111561173c5761173c611bbe565b141561175e5760018201541561175e57600182015461175b908a611da8565b98505b505050808061176c90611e8b565b915050611600565b50505050915091565b6000546001600160a01b031633146117a75760405162461bcd60e51b815260040161067390611d5d565b6001600160a01b03811661180c5760405162461bcd60e51b815260206004820152602660248201527f4f776e61626c653a206e6577206f776e657220697320746865207a65726f206160448201526564647265737360d01b6064820152608401610673565b61181581611a29565b50565b600061182660055483611191565b9050600060646003548361183a9190611e4a565b6118449190611e69565b9050604051806040016040528084600281111561186357611863611bbe565b815260209081018390526005546000908152600b9091526040902081518154829060ff1916600183600281111561189c5761189c611bbe565b0217905550602091909101516001909101556002546040516001600160a01b039091169082156108fc029083906000818181858888f193505050501580156118e8573d6000803e3d6000fd5b50600254604080516001600160a01b039092168252602082018390527feb5f9d0f77ca1b4235da3a889df2e60673bcf3cdb66c14b903940a7c8f3013679101610de9565b600061193a60055483611191565b905080611945575050565b600060026064600454846119599190611e4a565b6119639190611e69565b61196d9190611e69565b905080600d600060055460016119839190611da8565b81526020019081526020016000206000600160028111156119a6576119a6611bbe565b60028111156119b7576119b7611bbe565b81526020019081526020016000206000018190555080600d600060055460016119e09190611da8565b81526020019081526020016000206000600280811115611a0257611a02611bbe565b6002811115611a1357611a13611bbe565b8152602081019190915260400160002055505050565b600080546001600160a01b038381166001600160a01b0319831681178455604051919092169283917f8be0079c531659141344cd1fd0a4f28419497f9722a3daafe3b4186f6b6457e09190a35050565b600080611a868484611191565b6000858152600b602052604090206001015490915061129c8183611e06565b600080611ab28484611191565b905080611ac357600091505061118b565b60646004546064611ad49190611e06565b611ade9083611e4a565b611ae89190611e69565b949350505050565b6000828152600d6020526040812081836002811115611b1157611b11611bbe565b6002811115611b2257611b22611bbe565b815260208082019290925260409081016000908120600190810154878352600c85528383203384529094529190200154611b659068056bc75e2d63100000611e4a565b611b6f9190611e69565b9392505050565b80356001600160a01b0381168114611b8d57600080fd5b919050565b60008060408385031215611ba557600080fd5b82359150611bb560208401611b76565b90509250929050565b634e487b7160e01b600052602160045260246000fd5b60038110611bf257634e487b7160e01b600052602160045260246000fd5b9052565b6000604082019050611c09828451611bd4565b602092830151919092015290565b600060208284031215611c2957600080fd5b5035919050565b60408101611c3e8285611bd4565b8260208301529392505050565b803560038110611b8d57600080fd5b60008060408385031215611c6d57600080fd5b82359150611bb560208401611c4b565b6020808252825182820181905260009190848201906040850190845b81811015611cbe5783516001600160a01b031683529284019291840191600101611c99565b50909695505050505050565b600060208284031215611cdc57600080fd5b611b6f82611c4b565b600060208284031215611cf757600080fd5b611b6f82611b76565b6020808252825182820181905260009190848201906040850190845b81811015611cbe57835183529284019291840191600101611d1c565b6020808252600b908201526a0aee4dedcce40cae0dec6d60ab1b604082015260600190565b6020808252818101527f4f776e61626c653a2063616c6c6572206973206e6f7420746865206f776e6572604082015260600190565b634e487b7160e01b600052601160045260246000fd5b60008219821115611dbb57611dbb611d92565b500190565b6020808252600a908201526915dc9bdb99c81c1bdbdb60b21b604082015260600190565b600060208284031215611df657600080fd5b81518015158114611b6f57600080fd5b600082821015611e1857611e18611d92565b500390565b634e487b7160e01b600052603260045260246000fd5b600081611e4257611e42611d92565b506000190190565b6000816000190483118215151615611e6457611e64611d92565b500290565b600082611e8657634e487b7160e01b600052601260045260246000fd5b500490565b6000600019821415611e9f57611e9f611d92565b506001019056fea26469706673582212206c97d92b61716cca713c2c9d40e1fce329cc68cd28df74921ad6eff5ed8060cb64736f6c63430008090033",
			"opcodes": "PUSH1 0x80 PUSH1 0x40 MSTORE CALLVALUE DUP1 ISZERO PUSH3 0x11 JUMPI PUSH1 0x0 DUP1 REVERT JUMPDEST POP PUSH1 0x40 MLOAD PUSH3 0x2031 CODESIZE SUB DUP1 PUSH3 0x2031 DUP4 CODECOPY DUP2 ADD PUSH1 0x40 DUP2 SWAP1 MSTORE PUSH3 0x34 SWAP2 PUSH3 0x10D JUMP JUMPDEST PUSH3 0x3F CALLER PUSH3 0xA0 JUMP JUMPDEST PUSH8 0xDE0B6B3A7640000 PUSH1 0x9 SSTORE PUSH8 0x16345785D8A0000 PUSH1 0x8 SSTORE PUSH2 0x2A30 PUSH1 0x7 SSTORE PUSH1 0x1E PUSH1 0x4 SSTORE PUSH1 0x5 PUSH1 0x3 SSTORE PUSH1 0x1 DUP1 SLOAD PUSH1 0x1 PUSH1 0x1 PUSH1 0xA0 SHL SUB SWAP3 DUP4 AND PUSH1 0x1 PUSH1 0x1 PUSH1 0xA0 SHL SUB NOT SWAP2 DUP3 AND OR SWAP1 SWAP2 SSTORE PUSH1 0x2 DUP1 SLOAD SWAP4 SWAP1 SWAP3 AND SWAP3 AND SWAP2 SWAP1 SWAP2 OR SWAP1 SSTORE TIMESTAMP PUSH1 0x6 SSTORE PUSH3 0x145 JUMP JUMPDEST PUSH1 0x0 DUP1 SLOAD PUSH1 0x1 PUSH1 0x1 PUSH1 0xA0 SHL SUB DUP4 DUP2 AND PUSH1 0x1 PUSH1 0x1 PUSH1 0xA0 SHL SUB NOT DUP4 AND DUP2 OR DUP5 SSTORE PUSH1 0x40 MLOAD SWAP2 SWAP1 SWAP3 AND SWAP3 DUP4 SWAP2 PUSH32 0x8BE0079C531659141344CD1FD0A4F28419497F9722A3DAAFE3B4186F6B6457E0 SWAP2 SWAP1 LOG3 POP POP JUMP JUMPDEST DUP1 MLOAD PUSH1 0x1 PUSH1 0x1 PUSH1 0xA0 SHL SUB DUP2 AND DUP2 EQ PUSH3 0x108 JUMPI PUSH1 0x0 DUP1 REVERT JUMPDEST SWAP2 SWAP1 POP JUMP JUMPDEST PUSH1 0x0 DUP1 PUSH1 0x40 DUP4 DUP6 SUB SLT ISZERO PUSH3 0x121 JUMPI PUSH1 0x0 DUP1 REVERT JUMPDEST PUSH3 0x12C DUP4 PUSH3 0xF0 JUMP JUMPDEST SWAP2 POP PUSH3 0x13C PUSH1 0x20 DUP5 ADD PUSH3 0xF0 JUMP JUMPDEST SWAP1 POP SWAP3 POP SWAP3 SWAP1 POP JUMP JUMPDEST PUSH2 0x1EDC DUP1 PUSH3 0x155 PUSH1 0x0 CODECOPY PUSH1 0x0 RETURN INVALID PUSH1 0x80 PUSH1 0x40 MSTORE PUSH1 0x4 CALLDATASIZE LT PUSH2 0x1E3 JUMPI PUSH1 0x0 CALLDATALOAD PUSH1 0xE0 SHR DUP1 PUSH4 0x715018A6 GT PUSH2 0x102 JUMPI DUP1 PUSH4 0xAC427A66 GT PUSH2 0x95 JUMPI DUP1 PUSH4 0xD430E34A GT PUSH2 0x64 JUMPI DUP1 PUSH4 0xD430E34A EQ PUSH2 0x5B1 JUMPI DUP1 PUSH4 0xDAB84EE7 EQ PUSH2 0x5E6 JUMPI DUP1 PUSH4 0xE884269A EQ PUSH2 0x606 JUMPI DUP1 PUSH4 0xF2FDE38B EQ PUSH2 0x61C JUMPI PUSH1 0x0 DUP1 REVERT JUMPDEST DUP1 PUSH4 0xAC427A66 EQ PUSH2 0x52E JUMPI DUP1 PUSH4 0xB217B2CA EQ PUSH2 0x55B JUMPI DUP1 PUSH4 0xC2CE5E9A EQ PUSH2 0x57B JUMPI DUP1 PUSH4 0xD0841F22 EQ PUSH2 0x59B JUMPI PUSH1 0x0 DUP1 REVERT JUMPDEST DUP1 PUSH4 0x8CDB442F GT PUSH2 0xD1 JUMPI DUP1 PUSH4 0x8CDB442F EQ PUSH2 0x4B0 JUMPI DUP1 PUSH4 0x8DA5CB5B EQ PUSH2 0x4D0 JUMPI DUP1 PUSH4 0x9D979680 EQ PUSH2 0x4EE JUMPI DUP1 PUSH4 0xA424E9A3 EQ PUSH2 0x50E JUMPI PUSH1 0x0 DUP1 REVERT JUMPDEST DUP1 PUSH4 0x715018A6 EQ PUSH2 0x438 JUMPI DUP1 PUSH4 0x7578ABB2 EQ PUSH2 0x44D JUMPI DUP1 PUSH4 0x76671808 EQ PUSH2 0x47A JUMPI DUP1 PUSH4 0x79DB71B8 EQ PUSH2 0x490 JUMPI PUSH1 0x0 DUP1 REVERT JUMPDEST DUP1 PUSH4 0x4C66C039 GT PUSH2 0x17A JUMPI DUP1 PUSH4 0x65D5426E GT PUSH2 0x149 JUMPI DUP1 PUSH4 0x65D5426E EQ PUSH2 0x39D JUMPI DUP1 PUSH4 0x6655AD41 EQ PUSH2 0x3B3 JUMPI DUP1 PUSH4 0x66F0D43D EQ PUSH2 0x3E0 JUMPI DUP1 PUSH4 0x680F7749 EQ PUSH2 0x418 JUMPI PUSH1 0x0 DUP1 REVERT JUMPDEST DUP1 PUSH4 0x4C66C039 EQ PUSH2 0x323 JUMPI DUP1 PUSH4 0x4FAE031B EQ PUSH2 0x339 JUMPI DUP1 PUSH4 0x4FF0876A EQ PUSH2 0x34C JUMPI DUP1 PUSH4 0x5B75E3F3 EQ PUSH2 0x362 JUMPI PUSH1 0x0 DUP1 REVERT JUMPDEST DUP1 PUSH4 0x375B3C0A GT PUSH2 0x1B6 JUMPI DUP1 PUSH4 0x375B3C0A EQ PUSH2 0x2A8 JUMPI DUP1 PUSH4 0x41C0E1B5 EQ PUSH2 0x2CC JUMPI DUP1 PUSH4 0x48E72AA9 EQ PUSH2 0x2E1 JUMPI DUP1 PUSH4 0x4C14F0E5 EQ PUSH2 0x2F6 JUMPI PUSH1 0x0 DUP1 REVERT JUMPDEST DUP1 PUSH4 0xE88BF9C EQ PUSH2 0x1E8 JUMPI DUP1 PUSH4 0x2A5D2CD0 EQ PUSH2 0x21E JUMPI DUP1 PUSH4 0x313D2FFD EQ PUSH2 0x240 JUMPI DUP1 PUSH4 0x33BEADBE EQ PUSH2 0x288 JUMPI JUMPDEST PUSH1 0x0 DUP1 REVERT JUMPDEST CALLVALUE DUP1 ISZERO PUSH2 0x1F4 JUMPI PUSH1 0x0 DUP1 REVERT JUMPDEST POP PUSH2 0x208 PUSH2 0x203 CALLDATASIZE PUSH1 0x4 PUSH2 0x1B92 JUMP JUMPDEST PUSH2 0x63C JUMP JUMPDEST PUSH1 0x40 MLOAD PUSH2 0x215 SWAP2 SWAP1 PUSH2 0x1BF6 JUMP JUMPDEST PUSH1 0x40 MLOAD DUP1 SWAP2 SUB SWAP1 RETURN JUMPDEST CALLVALUE DUP1 ISZERO PUSH2 0x22A JUMPI PUSH1 0x0 DUP1 REVERT JUMPDEST POP PUSH2 0x23E PUSH2 0x239 CALLDATASIZE PUSH1 0x4 PUSH2 0x1C17 JUMP JUMPDEST PUSH2 0x6E8 JUMP JUMPDEST STOP JUMPDEST CALLVALUE DUP1 ISZERO PUSH2 0x24C JUMPI PUSH1 0x0 DUP1 REVERT JUMPDEST POP PUSH2 0x27A PUSH2 0x25B CALLDATASIZE PUSH1 0x4 PUSH2 0x1C17 JUMP JUMPDEST PUSH1 0xB PUSH1 0x20 MSTORE PUSH1 0x0 SWAP1 DUP2 MSTORE PUSH1 0x40 SWAP1 KECCAK256 DUP1 SLOAD PUSH1 0x1 SWAP1 SWAP2 ADD SLOAD PUSH1 0xFF SWAP1 SWAP2 AND SWAP1 DUP3 JUMP JUMPDEST PUSH1 0x40 MLOAD PUSH2 0x215 SWAP3 SWAP2 SWAP1 PUSH2 0x1C30 JUMP JUMPDEST CALLVALUE DUP1 ISZERO PUSH2 0x294 JUMPI PUSH1 0x0 DUP1 REVERT JUMPDEST POP PUSH2 0x23E PUSH2 0x2A3 CALLDATASIZE PUSH1 0x4 PUSH2 0x1C17 JUMP JUMPDEST PUSH2 0x759 JUMP JUMPDEST CALLVALUE DUP1 ISZERO PUSH2 0x2B4 JUMPI PUSH1 0x0 DUP1 REVERT JUMPDEST POP PUSH2 0x2BE PUSH1 0x8 SLOAD DUP2 JUMP JUMPDEST PUSH1 0x40 MLOAD SWAP1 DUP2 MSTORE PUSH1 0x20 ADD PUSH2 0x215 JUMP JUMPDEST CALLVALUE DUP1 ISZERO PUSH2 0x2D8 JUMPI PUSH1 0x0 DUP1 REVERT JUMPDEST POP PUSH2 0x23E PUSH2 0x788 JUMP JUMPDEST CALLVALUE DUP1 ISZERO PUSH2 0x2ED JUMPI PUSH1 0x0 DUP1 REVERT JUMPDEST POP PUSH2 0x23E PUSH2 0x7B5 JUMP JUMPDEST CALLVALUE DUP1 ISZERO PUSH2 0x302 JUMPI PUSH1 0x0 DUP1 REVERT JUMPDEST POP PUSH2 0x316 PUSH2 0x311 CALLDATASIZE PUSH1 0x4 PUSH2 0x1C5A JUMP JUMPDEST PUSH2 0x9B2 JUMP JUMPDEST PUSH1 0x40 MLOAD PUSH2 0x215 SWAP2 SWAP1 PUSH2 0x1C7D JUMP JUMPDEST CALLVALUE DUP1 ISZERO PUSH2 0x32F JUMPI PUSH1 0x0 DUP1 REVERT JUMPDEST POP PUSH2 0x2BE PUSH1 0x9 SLOAD DUP2 JUMP JUMPDEST PUSH2 0x23E PUSH2 0x347 CALLDATASIZE PUSH1 0x4 PUSH2 0x1CCA JUMP JUMPDEST PUSH2 0xAC8 JUMP JUMPDEST CALLVALUE DUP1 ISZERO PUSH2 0x358 JUMPI PUSH1 0x0 DUP1 REVERT JUMPDEST POP PUSH2 0x2BE PUSH1 0x7 SLOAD DUP2 JUMP JUMPDEST CALLVALUE DUP1 ISZERO PUSH2 0x36E JUMPI PUSH1 0x0 DUP1 REVERT JUMPDEST POP PUSH2 0x382 PUSH2 0x37D CALLDATASIZE PUSH1 0x4 PUSH2 0x1C5A JUMP JUMPDEST PUSH2 0xDF6 JUMP JUMPDEST PUSH1 0x40 DUP1 MLOAD DUP3 MLOAD DUP2 MSTORE PUSH1 0x20 SWAP3 DUP4 ADD MLOAD SWAP3 DUP2 ADD SWAP3 SWAP1 SWAP3 MSTORE ADD PUSH2 0x215 JUMP JUMPDEST CALLVALUE DUP1 ISZERO PUSH2 0x3A9 JUMPI PUSH1 0x0 DUP1 REVERT JUMPDEST POP PUSH2 0x2BE PUSH1 0x4 SLOAD DUP2 JUMP JUMPDEST CALLVALUE DUP1 ISZERO PUSH2 0x3BF JUMPI PUSH1 0x0 DUP1 REVERT JUMPDEST POP PUSH2 0x2BE PUSH2 0x3CE CALLDATASIZE PUSH1 0x4 PUSH2 0x1CE5 JUMP JUMPDEST PUSH1 0xA PUSH1 0x20 MSTORE PUSH1 0x0 SWAP1 DUP2 MSTORE PUSH1 0x40 SWAP1 KECCAK256 SLOAD DUP2 JUMP JUMPDEST CALLVALUE DUP1 ISZERO PUSH2 0x3EC JUMPI PUSH1 0x0 DUP1 REVERT JUMPDEST POP PUSH1 0x1 SLOAD PUSH2 0x400 SWAP1 PUSH1 0x1 PUSH1 0x1 PUSH1 0xA0 SHL SUB AND DUP2 JUMP JUMPDEST PUSH1 0x40 MLOAD PUSH1 0x1 PUSH1 0x1 PUSH1 0xA0 SHL SUB SWAP1 SWAP2 AND DUP2 MSTORE PUSH1 0x20 ADD PUSH2 0x215 JUMP JUMPDEST CALLVALUE DUP1 ISZERO PUSH2 0x424 JUMPI PUSH1 0x0 DUP1 REVERT JUMPDEST POP PUSH2 0x23E PUSH2 0x433 CALLDATASIZE PUSH1 0x4 PUSH2 0x1C17 JUMP JUMPDEST PUSH2 0xEE4 JUMP JUMPDEST CALLVALUE DUP1 ISZERO PUSH2 0x444 JUMPI PUSH1 0x0 DUP1 REVERT JUMPDEST POP PUSH2 0x23E PUSH2 0xF64 JUMP JUMPDEST CALLVALUE DUP1 ISZERO PUSH2 0x459 JUMPI PUSH1 0x0 DUP1 REVERT JUMPDEST POP PUSH2 0x2BE PUSH2 0x468 CALLDATASIZE PUSH1 0x4 PUSH2 0x1CE5 JUMP JUMPDEST PUSH1 0x10 PUSH1 0x20 MSTORE PUSH1 0x0 SWAP1 DUP2 MSTORE PUSH1 0x40 SWAP1 KECCAK256 SLOAD DUP2 JUMP JUMPDEST CALLVALUE DUP1 ISZERO PUSH2 0x486 JUMPI PUSH1 0x0 DUP1 REVERT JUMPDEST POP PUSH2 0x2BE PUSH1 0x5 SLOAD DUP2 JUMP JUMPDEST CALLVALUE DUP1 ISZERO PUSH2 0x49C JUMPI PUSH1 0x0 DUP1 REVERT JUMPDEST POP PUSH2 0x23E PUSH2 0x4AB CALLDATASIZE PUSH1 0x4 PUSH2 0x1C17 JUMP JUMPDEST PUSH2 0xF9A JUMP JUMPDEST CALLVALUE DUP1 ISZERO PUSH2 0x4BC JUMPI PUSH1 0x0 DUP1 REVERT JUMPDEST POP PUSH2 0x23E PUSH2 0x4CB CALLDATASIZE PUSH1 0x4 PUSH2 0x1C17 JUMP JUMPDEST PUSH2 0x110A JUMP JUMPDEST CALLVALUE DUP1 ISZERO PUSH2 0x4DC JUMPI PUSH1 0x0 DUP1 REVERT JUMPDEST POP PUSH1 0x0 SLOAD PUSH1 0x1 PUSH1 0x1 PUSH1 0xA0 SHL SUB AND PUSH2 0x400 JUMP JUMPDEST CALLVALUE DUP1 ISZERO PUSH2 0x4FA JUMPI PUSH1 0x0 DUP1 REVERT JUMPDEST POP PUSH2 0x2BE PUSH2 0x509 CALLDATASIZE PUSH1 0x4 PUSH2 0x1C5A JUMP JUMPDEST PUSH2 0x117B JUMP JUMPDEST CALLVALUE DUP1 ISZERO PUSH2 0x51A JUMPI PUSH1 0x0 DUP1 REVERT JUMPDEST POP PUSH2 0x2BE PUSH2 0x529 CALLDATASIZE PUSH1 0x4 PUSH2 0x1C5A JUMP JUMPDEST PUSH2 0x1191 JUMP JUMPDEST CALLVALUE DUP1 ISZERO PUSH2 0x53A JUMPI PUSH1 0x0 DUP1 REVERT JUMPDEST POP PUSH2 0x54E PUSH2 0x549 CALLDATASIZE PUSH1 0x4 PUSH2 0x1CE5 JUMP JUMPDEST PUSH2 0x12A5 JUMP JUMPDEST PUSH1 0x40 MLOAD PUSH2 0x215 SWAP2 SWAP1 PUSH2 0x1D00 JUMP JUMPDEST CALLVALUE DUP1 ISZERO PUSH2 0x567 JUMPI PUSH1 0x0 DUP1 REVERT JUMPDEST POP PUSH2 0x23E PUSH2 0x576 CALLDATASIZE PUSH1 0x4 PUSH2 0x1CE5 JUMP JUMPDEST PUSH2 0x1311 JUMP JUMPDEST CALLVALUE DUP1 ISZERO PUSH2 0x587 JUMPI PUSH1 0x0 DUP1 REVERT JUMPDEST POP PUSH2 0x23E PUSH2 0x596 CALLDATASIZE PUSH1 0x4 PUSH2 0x1C17 JUMP JUMPDEST PUSH2 0x13A4 JUMP JUMPDEST CALLVALUE DUP1 ISZERO PUSH2 0x5A7 JUMPI PUSH1 0x0 DUP1 REVERT JUMPDEST POP PUSH2 0x2BE PUSH1 0x6 SLOAD DUP2 JUMP JUMPDEST CALLVALUE DUP1 ISZERO PUSH2 0x5BD JUMPI PUSH1 0x0 DUP1 REVERT JUMPDEST POP PUSH2 0x5D1 PUSH2 0x5CC CALLDATASIZE PUSH1 0x4 PUSH2 0x1C17 JUMP JUMPDEST PUSH2 0x1424 JUMP JUMPDEST PUSH1 0x40 DUP1 MLOAD SWAP3 DUP4 MSTORE PUSH1 0x20 DUP4 ADD SWAP2 SWAP1 SWAP2 MSTORE ADD PUSH2 0x215 JUMP JUMPDEST CALLVALUE DUP1 ISZERO PUSH2 0x5F2 JUMPI PUSH1 0x0 DUP1 REVERT JUMPDEST POP PUSH1 0x2 SLOAD PUSH2 0x400 SWAP1 PUSH1 0x1 PUSH1 0x1 PUSH1 0xA0 SHL SUB AND DUP2 JUMP JUMPDEST CALLVALUE DUP1 ISZERO PUSH2 0x612 JUMPI PUSH1 0x0 DUP1 REVERT JUMPDEST POP PUSH2 0x2BE PUSH1 0x3 SLOAD DUP2 JUMP JUMPDEST CALLVALUE DUP1 ISZERO PUSH2 0x628 JUMPI PUSH1 0x0 DUP1 REVERT JUMPDEST POP PUSH2 0x23E PUSH2 0x637 CALLDATASIZE PUSH1 0x4 PUSH2 0x1CE5 JUMP JUMPDEST PUSH2 0x177D JUMP JUMPDEST PUSH1 0x40 DUP1 MLOAD DUP1 DUP3 ADD SWAP1 SWAP2 MSTORE PUSH1 0x0 DUP1 DUP3 MSTORE PUSH1 0x20 DUP3 ADD MSTORE DUP3 PUSH1 0x5 SLOAD DUP2 GT ISZERO PUSH2 0x67C JUMPI PUSH1 0x40 MLOAD PUSH3 0x461BCD PUSH1 0xE5 SHL DUP2 MSTORE PUSH1 0x4 ADD PUSH2 0x673 SWAP1 PUSH2 0x1D38 JUMP JUMPDEST PUSH1 0x40 MLOAD DUP1 SWAP2 SUB SWAP1 REVERT JUMPDEST PUSH1 0x0 DUP5 DUP2 MSTORE PUSH1 0xC PUSH1 0x20 SWAP1 DUP2 MSTORE PUSH1 0x40 DUP1 DUP4 KECCAK256 PUSH1 0x1 PUSH1 0x1 PUSH1 0xA0 SHL SUB DUP8 AND DUP5 MSTORE SWAP1 SWAP2 MSTORE SWAP1 DUP2 SWAP1 KECCAK256 DUP2 MLOAD DUP1 DUP4 ADD SWAP1 SWAP3 MSTORE DUP1 SLOAD DUP3 SWAP1 PUSH1 0xFF AND PUSH1 0x2 DUP2 GT ISZERO PUSH2 0x6C0 JUMPI PUSH2 0x6C0 PUSH2 0x1BBE JUMP JUMPDEST PUSH1 0x2 DUP2 GT ISZERO PUSH2 0x6D1 JUMPI PUSH2 0x6D1 PUSH2 0x1BBE JUMP JUMPDEST DUP2 MSTORE PUSH1 0x20 ADD PUSH1 0x1 DUP3 ADD SLOAD DUP2 MSTORE POP POP SWAP2 POP POP SWAP3 SWAP2 POP POP JUMP JUMPDEST PUSH1 0x0 SLOAD PUSH1 0x1 PUSH1 0x1 PUSH1 0xA0 SHL SUB AND CALLER EQ PUSH2 0x712 JUMPI PUSH1 0x40 MLOAD PUSH3 0x461BCD PUSH1 0xE5 SHL DUP2 MSTORE PUSH1 0x4 ADD PUSH2 0x673 SWAP1 PUSH2 0x1D5D JUMP JUMPDEST PUSH1 0x0 DUP2 GT PUSH2 0x754 JUMPI PUSH1 0x40 MLOAD PUSH3 0x461BCD PUSH1 0xE5 SHL DUP2 MSTORE PUSH1 0x20 PUSH1 0x4 DUP3 ADD MSTORE PUSH1 0xF PUSH1 0x24 DUP3 ADD MSTORE PUSH15 0x2BB937B733902FB23AB930BA34B7B7 PUSH1 0x89 SHL PUSH1 0x44 DUP3 ADD MSTORE PUSH1 0x64 ADD PUSH2 0x673 JUMP JUMPDEST PUSH1 0x7 SSTORE JUMP JUMPDEST PUSH1 0x0 SLOAD PUSH1 0x1 PUSH1 0x1 PUSH1 0xA0 SHL SUB AND CALLER EQ PUSH2 0x783 JUMPI PUSH1 0x40 MLOAD PUSH3 0x461BCD PUSH1 0xE5 SHL DUP2 MSTORE PUSH1 0x4 ADD PUSH2 0x673 SWAP1 PUSH2 0x1D5D JUMP JUMPDEST PUSH1 0x9 SSTORE JUMP JUMPDEST PUSH1 0x0 SLOAD PUSH1 0x1 PUSH1 0x1 PUSH1 0xA0 SHL SUB AND CALLER EQ PUSH2 0x7B2 JUMPI PUSH1 0x40 MLOAD PUSH3 0x461BCD PUSH1 0xE5 SHL DUP2 MSTORE PUSH1 0x4 ADD PUSH2 0x673 SWAP1 PUSH2 0x1D5D JUMP JUMPDEST CALLER SELFDESTRUCT JUMPDEST PUSH1 0x0 SLOAD PUSH1 0x1 PUSH1 0x1 PUSH1 0xA0 SHL SUB AND CALLER EQ PUSH2 0x7DF JUMPI PUSH1 0x40 MLOAD PUSH3 0x461BCD PUSH1 0xE5 SHL DUP2 MSTORE PUSH1 0x4 ADD PUSH2 0x673 SWAP1 PUSH2 0x1D5D JUMP JUMPDEST PUSH1 0x5 SLOAD PUSH1 0x0 SWAP1 DUP2 MSTORE PUSH1 0xD PUSH1 0x20 SWAP1 DUP2 MSTORE PUSH1 0x40 DUP1 DUP4 KECCAK256 PUSH1 0x2 DUP5 MSTORE DUP1 DUP4 MSTORE DUP2 DUP5 KECCAK256 PUSH1 0x1 SWAP1 DUP2 ADD SLOAD DUP2 DUP7 MSTORE SWAP2 SWAP1 SWAP4 MSTORE SWAP3 KECCAK256 ADD SLOAD GT ISZERO PUSH2 0x82D JUMPI PUSH2 0x81E PUSH1 0x1 PUSH2 0x1818 JUMP JUMPDEST PUSH2 0x828 PUSH1 0x2 PUSH2 0x192C JUMP JUMPDEST PUSH2 0x959 JUMP JUMPDEST PUSH1 0x5 SLOAD PUSH1 0x0 SWAP1 DUP2 MSTORE PUSH1 0xD PUSH1 0x20 SWAP1 DUP2 MSTORE PUSH1 0x40 DUP1 DUP4 KECCAK256 PUSH1 0x2 DUP5 MSTORE DUP1 DUP4 MSTORE DUP2 DUP5 KECCAK256 PUSH1 0x1 SWAP1 DUP2 ADD SLOAD DUP2 DUP7 MSTORE SWAP2 SWAP1 SWAP4 MSTORE SWAP3 KECCAK256 ADD SLOAD LT ISZERO PUSH2 0x876 JUMPI PUSH2 0x86C PUSH1 0x2 PUSH2 0x1818 JUMP JUMPDEST PUSH2 0x828 PUSH1 0x1 PUSH2 0x192C JUMP JUMPDEST PUSH1 0x5 SLOAD PUSH1 0x0 DUP2 DUP2 MSTORE PUSH1 0xD PUSH1 0x20 DUP2 DUP2 MSTORE PUSH1 0x40 DUP1 DUP5 KECCAK256 PUSH1 0x1 DUP1 DUP7 MSTORE SWAP3 MSTORE DUP4 KECCAK256 SLOAD SWAP4 SWAP2 SWAP3 SWAP2 PUSH2 0x8A1 SWAP2 PUSH2 0x1DA8 JUMP JUMPDEST DUP2 MSTORE PUSH1 0x20 ADD SWAP1 DUP2 MSTORE PUSH1 0x20 ADD PUSH1 0x0 KECCAK256 PUSH1 0x0 PUSH1 0x1 PUSH1 0x2 DUP2 GT ISZERO PUSH2 0x8C4 JUMPI PUSH2 0x8C4 PUSH2 0x1BBE JUMP JUMPDEST PUSH1 0x2 DUP2 GT ISZERO PUSH2 0x8D5 JUMPI PUSH2 0x8D5 PUSH2 0x1BBE JUMP JUMPDEST DUP2 MSTORE PUSH1 0x20 DUP1 DUP3 ADD SWAP3 SWAP1 SWAP3 MSTORE PUSH1 0x40 SWAP1 DUP2 ADD PUSH1 0x0 SWAP1 DUP2 KECCAK256 SWAP4 SWAP1 SWAP4 SSTORE PUSH1 0x5 SLOAD DUP1 DUP5 MSTORE PUSH1 0xD DUP1 DUP5 MSTORE DUP3 DUP6 KECCAK256 PUSH1 0x2 DUP7 MSTORE SWAP1 SWAP4 MSTORE SWAP1 DUP4 KECCAK256 SLOAD SWAP3 SWAP1 PUSH2 0x914 SWAP1 PUSH1 0x1 PUSH2 0x1DA8 JUMP JUMPDEST DUP2 MSTORE PUSH1 0x20 ADD SWAP1 DUP2 MSTORE PUSH1 0x20 ADD PUSH1 0x0 KECCAK256 PUSH1 0x0 PUSH1 0x2 DUP1 DUP2 GT ISZERO PUSH2 0x936 JUMPI PUSH2 0x936 PUSH2 0x1BBE JUMP JUMPDEST PUSH1 0x2 DUP2 GT ISZERO PUSH2 0x947 JUMPI PUSH2 0x947 PUSH2 0x1BBE JUMP JUMPDEST DUP2 MSTORE PUSH1 0x20 DUP2 ADD SWAP2 SWAP1 SWAP2 MSTORE PUSH1 0x40 ADD PUSH1 0x0 KECCAK256 SSTORE JUMPDEST PUSH32 0x4785E7EC09A23F6DEF2C8B8390E835F9672F2B7DE0C8A0246094C386748B781F PUSH1 0x5 SLOAD PUSH1 0x40 MLOAD PUSH2 0x98C SWAP2 DUP2 MSTORE PUSH1 0x20 ADD SWAP1 JUMP JUMPDEST PUSH1 0x40 MLOAD DUP1 SWAP2 SUB SWAP1 LOG1 PUSH1 0x1 PUSH1 0x5 PUSH1 0x0 DUP3 DUP3 SLOAD PUSH2 0x9A7 SWAP2 SWAP1 PUSH2 0x1DA8 JUMP JUMPDEST SWAP1 SWAP2 SSTORE POP POP TIMESTAMP PUSH1 0x6 SSTORE JUMP JUMPDEST PUSH1 0x60 DUP3 PUSH1 0x5 SLOAD DUP2 GT ISZERO PUSH2 0x9D7 JUMPI PUSH1 0x40 MLOAD PUSH3 0x461BCD PUSH1 0xE5 SHL DUP2 MSTORE PUSH1 0x4 ADD PUSH2 0x673 SWAP1 PUSH2 0x1D38 JUMP JUMPDEST DUP3 PUSH1 0x1 DUP2 PUSH1 0x2 DUP2 GT ISZERO PUSH2 0x9EC JUMPI PUSH2 0x9EC PUSH2 0x1BBE JUMP JUMPDEST EQ DUP1 PUSH2 0xA09 JUMPI POP PUSH1 0x2 DUP2 PUSH1 0x2 DUP2 GT ISZERO PUSH2 0xA07 JUMPI PUSH2 0xA07 PUSH2 0x1BBE JUMP JUMPDEST EQ JUMPDEST PUSH2 0xA25 JUMPI PUSH1 0x40 MLOAD PUSH3 0x461BCD PUSH1 0xE5 SHL DUP2 MSTORE PUSH1 0x4 ADD PUSH2 0x673 SWAP1 PUSH2 0x1DC0 JUMP JUMPDEST PUSH1 0x0 DUP6 DUP2 MSTORE PUSH1 0xE PUSH1 0x20 MSTORE PUSH1 0x40 DUP2 KECCAK256 SWAP1 DUP6 PUSH1 0x2 DUP2 GT ISZERO PUSH2 0xA46 JUMPI PUSH2 0xA46 PUSH2 0x1BBE JUMP JUMPDEST PUSH1 0x2 DUP2 GT ISZERO PUSH2 0xA57 JUMPI PUSH2 0xA57 PUSH2 0x1BBE JUMP JUMPDEST DUP2 MSTORE PUSH1 0x20 ADD SWAP1 DUP2 MSTORE PUSH1 0x20 ADD PUSH1 0x0 KECCAK256 DUP1 SLOAD DUP1 PUSH1 0x20 MUL PUSH1 0x20 ADD PUSH1 0x40 MLOAD SWAP1 DUP2 ADD PUSH1 0x40 MSTORE DUP1 SWAP3 SWAP2 SWAP1 DUP2 DUP2 MSTORE PUSH1 0x20 ADD DUP3 DUP1 SLOAD DUP1 ISZERO PUSH2 0xAB9 JUMPI PUSH1 0x20 MUL DUP3 ADD SWAP2 SWAP1 PUSH1 0x0 MSTORE PUSH1 0x20 PUSH1 0x0 KECCAK256 SWAP1 JUMPDEST DUP2 SLOAD PUSH1 0x1 PUSH1 0x1 PUSH1 0xA0 SHL SUB AND DUP2 MSTORE PUSH1 0x1 SWAP1 SWAP2 ADD SWAP1 PUSH1 0x20 ADD DUP1 DUP4 GT PUSH2 0xA9B JUMPI JUMPDEST POP POP POP POP POP SWAP3 POP POP POP SWAP3 SWAP2 POP POP JUMP JUMPDEST DUP1 PUSH1 0x1 DUP2 PUSH1 0x2 DUP2 GT ISZERO PUSH2 0xADD JUMPI PUSH2 0xADD PUSH2 0x1BBE JUMP JUMPDEST EQ DUP1 PUSH2 0xAFA JUMPI POP PUSH1 0x2 DUP2 PUSH1 0x2 DUP2 GT ISZERO PUSH2 0xAF8 JUMPI PUSH2 0xAF8 PUSH2 0x1BBE JUMP JUMPDEST EQ JUMPDEST PUSH2 0xB16 JUMPI PUSH1 0x40 MLOAD PUSH3 0x461BCD PUSH1 0xE5 SHL DUP2 MSTORE PUSH1 0x4 ADD PUSH2 0x673 SWAP1 PUSH2 0x1DC0 JUMP JUMPDEST PUSH1 0x8 SLOAD CALLVALUE LT ISZERO PUSH2 0xB57 JUMPI PUSH1 0x40 MLOAD PUSH3 0x461BCD PUSH1 0xE5 SHL DUP2 MSTORE PUSH1 0x20 PUSH1 0x4 DUP3 ADD MSTORE PUSH1 0xC PUSH1 0x24 DUP3 ADD MSTORE PUSH12 0x15DC9BDB99C8185B5BDD5B9D PUSH1 0xA2 SHL PUSH1 0x44 DUP3 ADD MSTORE PUSH1 0x64 ADD PUSH2 0x673 JUMP JUMPDEST PUSH1 0x7 SLOAD PUSH1 0x6 SLOAD PUSH2 0xB67 SWAP2 SWAP1 PUSH2 0x1DA8 JUMP JUMPDEST TIMESTAMP LT PUSH2 0xBA6 JUMPI PUSH1 0x40 MLOAD PUSH3 0x461BCD PUSH1 0xE5 SHL DUP2 MSTORE PUSH1 0x20 PUSH1 0x4 DUP3 ADD MSTORE PUSH1 0xE PUSH1 0x24 DUP3 ADD MSTORE PUSH14 0x115C1BD8DA08199A5B9A5CDA1959 PUSH1 0x92 SHL PUSH1 0x44 DUP3 ADD MSTORE PUSH1 0x64 ADD PUSH2 0x673 JUMP JUMPDEST PUSH1 0x5 SLOAD PUSH1 0x0 SWAP1 DUP2 MSTORE PUSH1 0xC PUSH1 0x20 SWAP1 DUP2 MSTORE PUSH1 0x40 DUP1 DUP4 KECCAK256 CALLER DUP5 MSTORE SWAP1 SWAP2 MSTORE DUP2 KECCAK256 SWAP1 DUP2 SLOAD PUSH1 0xFF AND PUSH1 0x2 DUP2 GT ISZERO PUSH2 0xBD9 JUMPI PUSH2 0xBD9 PUSH2 0x1BBE JUMP JUMPDEST EQ ISZERO PUSH2 0xC8F JUMPI DUP1 SLOAD DUP4 SWAP1 DUP3 SWAP1 PUSH1 0xFF NOT AND PUSH1 0x1 DUP4 PUSH1 0x2 DUP2 GT ISZERO PUSH2 0xBFD JUMPI PUSH2 0xBFD PUSH2 0x1BBE JUMP JUMPDEST MUL OR SWAP1 SSTORE POP PUSH1 0x5 SLOAD PUSH1 0x0 SWAP1 DUP2 MSTORE PUSH1 0xE PUSH1 0x20 MSTORE PUSH1 0x40 DUP2 KECCAK256 SWAP1 DUP5 PUSH1 0x2 DUP2 GT ISZERO PUSH2 0xC26 JUMPI PUSH2 0xC26 PUSH2 0x1BBE JUMP JUMPDEST PUSH1 0x2 DUP2 GT ISZERO PUSH2 0xC37 JUMPI PUSH2 0xC37 PUSH2 0x1BBE JUMP JUMPDEST DUP2 MSTORE PUSH1 0x20 DUP1 DUP3 ADD SWAP3 SWAP1 SWAP3 MSTORE PUSH1 0x40 SWAP1 DUP2 ADD PUSH1 0x0 SWAP1 DUP2 KECCAK256 DUP1 SLOAD PUSH1 0x1 DUP2 DUP2 ADD DUP4 SSTORE SWAP2 DUP4 MSTORE DUP5 DUP4 KECCAK256 ADD DUP1 SLOAD PUSH1 0x1 PUSH1 0x1 PUSH1 0xA0 SHL SUB NOT AND CALLER SWAP1 DUP2 OR SWAP1 SWAP2 SSTORE DUP3 MSTORE PUSH1 0xF DUP5 MSTORE SWAP2 DUP2 KECCAK256 PUSH1 0x5 SLOAD DUP2 SLOAD SWAP4 DUP5 ADD DUP3 SSTORE SWAP1 DUP3 MSTORE SWAP3 SWAP1 KECCAK256 ADD SSTORE PUSH2 0xCF8 JUMP JUMPDEST DUP3 PUSH1 0x2 DUP2 GT ISZERO PUSH2 0xCA1 JUMPI PUSH2 0xCA1 PUSH2 0x1BBE JUMP JUMPDEST DUP2 SLOAD PUSH1 0xFF AND PUSH1 0x2 DUP2 GT ISZERO PUSH2 0xCB7 JUMPI PUSH2 0xCB7 PUSH2 0x1BBE JUMP JUMPDEST EQ PUSH2 0xCF8 JUMPI PUSH1 0x40 MLOAD PUSH3 0x461BCD PUSH1 0xE5 SHL DUP2 MSTORE PUSH1 0x20 PUSH1 0x4 DUP3 ADD MSTORE PUSH1 0x11 PUSH1 0x24 DUP3 ADD MSTORE PUSH17 0x4F7468657220706F6F6C206265666F7265 PUSH1 0x78 SHL PUSH1 0x44 DUP3 ADD MSTORE PUSH1 0x64 ADD PUSH2 0x673 JUMP JUMPDEST CALLVALUE DUP2 PUSH1 0x1 ADD PUSH1 0x0 DUP3 DUP3 SLOAD PUSH2 0xD0C SWAP2 SWAP1 PUSH2 0x1DA8 JUMP JUMPDEST SWAP1 SWAP2 SSTORE POP POP PUSH1 0x5 SLOAD PUSH1 0x0 SWAP1 DUP2 MSTORE PUSH1 0xD PUSH1 0x20 MSTORE PUSH1 0x40 DUP2 KECCAK256 CALLVALUE SWAP2 DUP6 PUSH1 0x2 DUP2 GT ISZERO PUSH2 0xD36 JUMPI PUSH2 0xD36 PUSH2 0x1BBE JUMP JUMPDEST PUSH1 0x2 DUP2 GT ISZERO PUSH2 0xD47 JUMPI PUSH2 0xD47 PUSH2 0x1BBE JUMP JUMPDEST DUP2 MSTORE PUSH1 0x20 ADD SWAP1 DUP2 MSTORE PUSH1 0x20 ADD PUSH1 0x0 KECCAK256 PUSH1 0x1 ADD PUSH1 0x0 DUP3 DUP3 SLOAD PUSH2 0xD67 SWAP2 SWAP1 PUSH2 0x1DA8 JUMP JUMPDEST SWAP1 SWAP2 SSTORE POP POP PUSH1 0x9 SLOAD ISZERO PUSH2 0xD9C JUMPI PUSH1 0x9 SLOAD CALLER PUSH1 0x0 SWAP1 DUP2 MSTORE PUSH1 0xA PUSH1 0x20 MSTORE PUSH1 0x40 DUP2 KECCAK256 DUP1 SLOAD SWAP1 SWAP2 SWAP1 PUSH2 0xD96 SWAP1 DUP5 SWAP1 PUSH2 0x1DA8 JUMP JUMPDEST SWAP1 SWAP2 SSTORE POP POP JUMPDEST PUSH32 0x6CCA775B324610E5248B7148E434BA483594805307A21ABFD0E62337833DAB19 DUP4 PUSH1 0x2 DUP2 GT ISZERO PUSH2 0xDCF JUMPI PUSH2 0xDCF PUSH2 0x1BBE JUMP JUMPDEST PUSH1 0x40 DUP1 MLOAD PUSH1 0xFF SWAP1 SWAP3 AND DUP3 MSTORE CALLER PUSH1 0x20 DUP4 ADD MSTORE CALLVALUE SWAP1 DUP3 ADD MSTORE PUSH1 0x60 ADD JUMPDEST PUSH1 0x40 MLOAD DUP1 SWAP2 SUB SWAP1 LOG1 POP POP POP JUMP JUMPDEST PUSH1 0x40 DUP1 MLOAD DUP1 DUP3 ADD SWAP1 SWAP2 MSTORE PUSH1 0x0 DUP1 DUP3 MSTORE PUSH1 0x20 DUP3 ADD MSTORE DUP3 PUSH1 0x5 SLOAD DUP2 GT ISZERO PUSH2 0xE2D JUMPI PUSH1 0x40 MLOAD PUSH3 0x461BCD PUSH1 0xE5 SHL DUP2 MSTORE PUSH1 0x4 ADD PUSH2 0x673 SWAP1 PUSH2 0x1D38 JUMP JUMPDEST DUP3 PUSH1 0x1 DUP2 PUSH1 0x2 DUP2 GT ISZERO PUSH2 0xE42 JUMPI PUSH2 0xE42 PUSH2 0x1BBE JUMP JUMPDEST EQ DUP1 PUSH2 0xE5F JUMPI POP PUSH1 0x2 DUP2 PUSH1 0x2 DUP2 GT ISZERO PUSH2 0xE5D JUMPI PUSH2 0xE5D PUSH2 0x1BBE JUMP JUMPDEST EQ JUMPDEST PUSH2 0xE7B JUMPI PUSH1 0x40 MLOAD PUSH3 0x461BCD PUSH1 0xE5 SHL DUP2 MSTORE PUSH1 0x4 ADD PUSH2 0x673 SWAP1 PUSH2 0x1DC0 JUMP JUMPDEST PUSH1 0x0 DUP6 DUP2 MSTORE PUSH1 0xD PUSH1 0x20 MSTORE PUSH1 0x40 DUP2 KECCAK256 SWAP1 DUP6 PUSH1 0x2 DUP2 GT ISZERO PUSH2 0xE9C JUMPI PUSH2 0xE9C PUSH2 0x1BBE JUMP JUMPDEST PUSH1 0x2 DUP2 GT ISZERO PUSH2 0xEAD JUMPI PUSH2 0xEAD PUSH2 0x1BBE JUMP JUMPDEST DUP2 MSTORE PUSH1 0x20 ADD SWAP1 DUP2 MSTORE PUSH1 0x20 ADD PUSH1 0x0 KECCAK256 PUSH1 0x40 MLOAD DUP1 PUSH1 0x40 ADD PUSH1 0x40 MSTORE SWAP1 DUP2 PUSH1 0x0 DUP3 ADD SLOAD DUP2 MSTORE PUSH1 0x20 ADD PUSH1 0x1 DUP3 ADD SLOAD DUP2 MSTORE POP POP SWAP3 POP POP POP SWAP3 SWAP2 POP POP JUMP JUMPDEST PUSH1 0x0 SLOAD PUSH1 0x1 PUSH1 0x1 PUSH1 0xA0 SHL SUB AND CALLER EQ PUSH2 0xF0E JUMPI PUSH1 0x40 MLOAD PUSH3 0x461BCD PUSH1 0xE5 SHL DUP2 MSTORE PUSH1 0x4 ADD PUSH2 0x673 SWAP1 PUSH2 0x1D5D JUMP JUMPDEST PUSH1 0x0 DUP2 GT DUP1 ISZERO PUSH2 0xF1F JUMPI POP PUSH1 0x64 DUP2 GT ISZERO JUMPDEST PUSH2 0xF5F JUMPI PUSH1 0x40 MLOAD PUSH3 0x461BCD PUSH1 0xE5 SHL DUP2 MSTORE PUSH1 0x20 PUSH1 0x4 DUP3 ADD MSTORE PUSH1 0x11 PUSH1 0x24 DUP3 ADD MSTORE PUSH17 0x57726F6E67205F70657263656E74616765 PUSH1 0x78 SHL PUSH1 0x44 DUP3 ADD MSTORE PUSH1 0x64 ADD PUSH2 0x673 JUMP JUMPDEST PUSH1 0x4 SSTORE JUMP JUMPDEST PUSH1 0x0 SLOAD PUSH1 0x1 PUSH1 0x1 PUSH1 0xA0 SHL SUB AND CALLER EQ PUSH2 0xF8E JUMPI PUSH1 0x40 MLOAD PUSH3 0x461BCD PUSH1 0xE5 SHL DUP2 MSTORE PUSH1 0x4 ADD PUSH2 0x673 SWAP1 PUSH2 0x1D5D JUMP JUMPDEST PUSH2 0xF98 PUSH1 0x0 PUSH2 0x1A29 JUMP JUMPDEST JUMP JUMPDEST CALLER PUSH1 0x0 SWAP1 DUP2 MSTORE PUSH1 0xA PUSH1 0x20 MSTORE PUSH1 0x40 SWAP1 KECCAK256 SLOAD DUP1 ISZERO PUSH2 0x106B JUMPI CALLER PUSH1 0x0 SWAP1 DUP2 MSTORE PUSH1 0xA PUSH1 0x20 MSTORE PUSH1 0x40 DUP2 KECCAK256 SSTORE PUSH1 0x1 SLOAD PUSH1 0x1 PUSH1 0x1 PUSH1 0xA0 SHL SUB AND PUSH4 0x23B872DD PUSH2 0xFE3 PUSH1 0x0 SLOAD PUSH1 0x1 PUSH1 0x1 PUSH1 0xA0 SHL SUB AND SWAP1 JUMP JUMPDEST PUSH1 0x40 MLOAD PUSH1 0x1 PUSH1 0x1 PUSH1 0xE0 SHL SUB NOT PUSH1 0xE0 DUP5 SWAP1 SHL AND DUP2 MSTORE PUSH1 0x1 PUSH1 0x1 PUSH1 0xA0 SHL SUB SWAP1 SWAP2 AND PUSH1 0x4 DUP3 ADD MSTORE CALLER PUSH1 0x24 DUP3 ADD MSTORE PUSH1 0x44 DUP2 ADD DUP5 SWAP1 MSTORE PUSH1 0x64 ADD PUSH1 0x20 PUSH1 0x40 MLOAD DUP1 DUP4 SUB DUP2 PUSH1 0x0 DUP8 DUP1 EXTCODESIZE ISZERO DUP1 ISZERO PUSH2 0x1031 JUMPI PUSH1 0x0 DUP1 REVERT JUMPDEST POP GAS CALL ISZERO DUP1 ISZERO PUSH2 0x1045 JUMPI RETURNDATASIZE PUSH1 0x0 DUP1 RETURNDATACOPY RETURNDATASIZE PUSH1 0x0 REVERT JUMPDEST POP POP POP POP PUSH1 0x40 MLOAD RETURNDATASIZE PUSH1 0x1F NOT PUSH1 0x1F DUP3 ADD AND DUP3 ADD DUP1 PUSH1 0x40 MSTORE POP DUP2 ADD SWAP1 PUSH2 0x1069 SWAP2 SWAP1 PUSH2 0x1DE4 JUMP JUMPDEST POP JUMPDEST PUSH1 0x0 DUP1 PUSH2 0x1077 DUP5 PUSH2 0x1424 JUMP JUMPDEST SWAP1 SWAP3 POP SWAP1 POP DUP2 ISZERO PUSH2 0x10BF JUMPI CALLER PUSH1 0x0 DUP2 DUP2 MSTORE PUSH1 0x10 PUSH1 0x20 MSTORE PUSH1 0x40 DUP1 DUP3 KECCAK256 DUP5 SWAP1 SSTORE MLOAD DUP5 ISZERO PUSH2 0x8FC MUL SWAP2 DUP6 SWAP2 SWAP1 DUP2 DUP2 DUP2 DUP6 DUP9 DUP9 CALL SWAP4 POP POP POP POP ISZERO DUP1 ISZERO PUSH2 0x10BD JUMPI RETURNDATASIZE PUSH1 0x0 DUP1 RETURNDATACOPY RETURNDATASIZE PUSH1 0x0 REVERT JUMPDEST POP JUMPDEST DUP3 ISZERO DUP1 ISZERO PUSH2 0x10CB JUMPI POP DUP2 ISZERO JUMPDEST ISZERO PUSH2 0x1104 JUMPI PUSH1 0x40 MLOAD PUSH3 0x461BCD PUSH1 0xE5 SHL DUP2 MSTORE PUSH1 0x20 PUSH1 0x4 DUP3 ADD MSTORE PUSH1 0x9 PUSH1 0x24 DUP3 ADD MSTORE PUSH9 0x139BC81C995DD85C99 PUSH1 0xBA SHL PUSH1 0x44 DUP3 ADD MSTORE PUSH1 0x64 ADD PUSH2 0x673 JUMP JUMPDEST POP POP POP POP JUMP JUMPDEST PUSH1 0x0 SLOAD PUSH1 0x1 PUSH1 0x1 PUSH1 0xA0 SHL SUB AND CALLER EQ PUSH2 0x1134 JUMPI PUSH1 0x40 MLOAD PUSH3 0x461BCD PUSH1 0xE5 SHL DUP2 MSTORE PUSH1 0x4 ADD PUSH2 0x673 SWAP1 PUSH2 0x1D5D JUMP JUMPDEST PUSH1 0x0 DUP2 GT PUSH2 0x1176 JUMPI PUSH1 0x40 MLOAD PUSH3 0x461BCD PUSH1 0xE5 SHL DUP2 MSTORE PUSH1 0x20 PUSH1 0x4 DUP3 ADD MSTORE PUSH1 0xF PUSH1 0x24 DUP3 ADD MSTORE PUSH15 0x57726F6E67205F6D696E5374616B65 PUSH1 0x88 SHL PUSH1 0x44 DUP3 ADD MSTORE PUSH1 0x64 ADD PUSH2 0x673 JUMP JUMPDEST PUSH1 0x8 SSTORE JUMP JUMPDEST PUSH1 0x0 PUSH2 0x1187 DUP4 DUP4 PUSH2 0x9B2 JUMP JUMPDEST MLOAD SWAP1 POP JUMPDEST SWAP3 SWAP2 POP POP JUMP JUMPDEST PUSH1 0x0 DUP3 PUSH1 0x5 SLOAD DUP2 GT ISZERO PUSH2 0x11B6 JUMPI PUSH1 0x40 MLOAD PUSH3 0x461BCD PUSH1 0xE5 SHL DUP2 MSTORE PUSH1 0x4 ADD PUSH2 0x673 SWAP1 PUSH2 0x1D38 JUMP JUMPDEST DUP3 PUSH1 0x1 DUP2 PUSH1 0x2 DUP2 GT ISZERO PUSH2 0x11CB JUMPI PUSH2 0x11CB PUSH2 0x1BBE JUMP JUMPDEST EQ DUP1 PUSH2 0x11E8 JUMPI POP PUSH1 0x2 DUP2 PUSH1 0x2 DUP2 GT ISZERO PUSH2 0x11E6 JUMPI PUSH2 0x11E6 PUSH2 0x1BBE JUMP JUMPDEST EQ JUMPDEST PUSH2 0x1204 JUMPI PUSH1 0x40 MLOAD PUSH3 0x461BCD PUSH1 0xE5 SHL DUP2 MSTORE PUSH1 0x4 ADD PUSH2 0x673 SWAP1 PUSH2 0x1DC0 JUMP JUMPDEST PUSH1 0x0 DUP6 DUP2 MSTORE PUSH1 0xD PUSH1 0x20 MSTORE PUSH1 0x40 DUP2 KECCAK256 SWAP1 DUP6 PUSH1 0x2 DUP2 GT ISZERO PUSH2 0x1225 JUMPI PUSH2 0x1225 PUSH2 0x1BBE JUMP JUMPDEST PUSH1 0x2 DUP2 GT ISZERO PUSH2 0x1236 JUMPI PUSH2 0x1236 PUSH2 0x1BBE JUMP JUMPDEST DUP2 MSTORE PUSH1 0x20 ADD SWAP1 DUP2 MSTORE PUSH1 0x20 ADD PUSH1 0x0 KECCAK256 PUSH1 0x1 ADD SLOAD PUSH1 0xD PUSH1 0x0 DUP8 DUP2 MSTORE PUSH1 0x20 ADD SWAP1 DUP2 MSTORE PUSH1 0x20 ADD PUSH1 0x0 KECCAK256 PUSH1 0x0 DUP7 PUSH1 0x2 DUP2 GT ISZERO PUSH2 0x126F JUMPI PUSH2 0x126F PUSH2 0x1BBE JUMP JUMPDEST PUSH1 0x2 DUP2 GT ISZERO PUSH2 0x1280 JUMPI PUSH2 0x1280 PUSH2 0x1BBE JUMP JUMPDEST DUP2 MSTORE PUSH1 0x20 ADD SWAP1 DUP2 MSTORE PUSH1 0x20 ADD PUSH1 0x0 KECCAK256 PUSH1 0x0 ADD SLOAD PUSH2 0x129C SWAP2 SWAP1 PUSH2 0x1DA8 JUMP JUMPDEST SWAP6 SWAP5 POP POP POP POP POP JUMP JUMPDEST PUSH1 0x1 PUSH1 0x1 PUSH1 0xA0 SHL SUB DUP2 AND PUSH1 0x0 SWAP1 DUP2 MSTORE PUSH1 0xF PUSH1 0x20 SWAP1 DUP2 MSTORE PUSH1 0x40 SWAP2 DUP3 SWAP1 KECCAK256 DUP1 SLOAD DUP4 MLOAD DUP2 DUP5 MUL DUP2 ADD DUP5 ADD SWAP1 SWAP5 MSTORE DUP1 DUP5 MSTORE PUSH1 0x60 SWAP4 SWAP3 DUP4 ADD DUP3 DUP3 DUP1 ISZERO PUSH2 0x1305 JUMPI PUSH1 0x20 MUL DUP3 ADD SWAP2 SWAP1 PUSH1 0x0 MSTORE PUSH1 0x20 PUSH1 0x0 KECCAK256 SWAP1 JUMPDEST DUP2 SLOAD DUP2 MSTORE PUSH1 0x20 ADD SWAP1 PUSH1 0x1 ADD SWAP1 DUP1 DUP4 GT PUSH2 0x12F1 JUMPI JUMPDEST POP POP POP POP POP SWAP1 POP SWAP2 SWAP1 POP JUMP JUMPDEST PUSH1 0x0 SLOAD PUSH1 0x1 PUSH1 0x1 PUSH1 0xA0 SHL SUB AND CALLER EQ PUSH2 0x133B JUMPI PUSH1 0x40 MLOAD PUSH3 0x461BCD PUSH1 0xE5 SHL DUP2 MSTORE PUSH1 0x4 ADD PUSH2 0x673 SWAP1 PUSH2 0x1D5D JUMP JUMPDEST PUSH1 0x1 PUSH1 0x1 PUSH1 0xA0 SHL SUB DUP2 AND PUSH2 0x1382 JUMPI PUSH1 0x40 MLOAD PUSH3 0x461BCD PUSH1 0xE5 SHL DUP2 MSTORE PUSH1 0x20 PUSH1 0x4 DUP3 ADD MSTORE PUSH1 0xE PUSH1 0x24 DUP3 ADD MSTORE PUSH14 0x57726F6E67205F61646472657373 PUSH1 0x90 SHL PUSH1 0x44 DUP3 ADD MSTORE PUSH1 0x64 ADD PUSH2 0x673 JUMP JUMPDEST PUSH1 0x2 DUP1 SLOAD PUSH1 0x1 PUSH1 0x1 PUSH1 0xA0 SHL SUB NOT AND PUSH1 0x1 PUSH1 0x1 PUSH1 0xA0 SHL SUB SWAP3 SWAP1 SWAP3 AND SWAP2 SWAP1 SWAP2 OR SWAP1 SSTORE JUMP JUMPDEST PUSH1 0x0 SLOAD PUSH1 0x1 PUSH1 0x1 PUSH1 0xA0 SHL SUB AND CALLER EQ PUSH2 0x13CE JUMPI PUSH1 0x40 MLOAD PUSH3 0x461BCD PUSH1 0xE5 SHL DUP2 MSTORE PUSH1 0x4 ADD PUSH2 0x673 SWAP1 PUSH2 0x1D5D JUMP JUMPDEST PUSH1 0x0 DUP2 GT DUP1 ISZERO PUSH2 0x13DF JUMPI POP PUSH1 0x64 DUP2 GT ISZERO JUMPDEST PUSH2 0x141F JUMPI PUSH1 0x40 MLOAD PUSH3 0x461BCD PUSH1 0xE5 SHL DUP2 MSTORE PUSH1 0x20 PUSH1 0x4 DUP3 ADD MSTORE PUSH1 0x11 PUSH1 0x24 DUP3 ADD MSTORE PUSH17 0x57726F6E67205F70657263656E74616765 PUSH1 0x78 SHL PUSH1 0x44 DUP3 ADD MSTORE PUSH1 0x64 ADD PUSH2 0x673 JUMP JUMPDEST PUSH1 0x3 SSTORE JUMP JUMPDEST CALLER PUSH1 0x0 SWAP1 DUP2 MSTORE PUSH1 0xF PUSH1 0x20 SWAP1 DUP2 MSTORE PUSH1 0x40 DUP1 DUP4 KECCAK256 DUP1 SLOAD DUP3 MLOAD DUP2 DUP6 MUL DUP2 ADD DUP6 ADD SWAP1 SWAP4 MSTORE DUP1 DUP4 MSTORE DUP5 SWAP4 DUP5 SWAP4 SWAP3 SWAP2 SWAP1 DUP4 ADD DUP3 DUP3 DUP1 ISZERO PUSH2 0x147D JUMPI PUSH1 0x20 MUL DUP3 ADD SWAP2 SWAP1 PUSH1 0x0 MSTORE PUSH1 0x20 PUSH1 0x0 KECCAK256 SWAP1 JUMPDEST DUP2 SLOAD DUP2 MSTORE PUSH1 0x20 ADD SWAP1 PUSH1 0x1 ADD SWAP1 DUP1 DUP4 GT PUSH2 0x1469 JUMPI JUMPDEST POP POP POP POP POP SWAP1 POP PUSH1 0x0 DUP2 MLOAD GT PUSH2 0x14C0 JUMPI PUSH1 0x40 MLOAD PUSH3 0x461BCD PUSH1 0xE5 SHL DUP2 MSTORE PUSH1 0x20 PUSH1 0x4 DUP3 ADD MSTORE PUSH1 0x8 PUSH1 0x24 DUP3 ADD MSTORE PUSH8 0x9CDE40CAE0DEC6D PUSH1 0xC3 SHL PUSH1 0x44 DUP3 ADD MSTORE PUSH1 0x64 ADD PUSH2 0x673 JUMP JUMPDEST CALLER PUSH1 0x0 SWAP1 DUP2 MSTORE PUSH1 0x10 PUSH1 0x20 MSTORE PUSH1 0x40 SWAP1 KECCAK256 SLOAD DUP2 MLOAD DUP2 LT PUSH2 0x1511 JUMPI PUSH1 0x40 MLOAD PUSH3 0x461BCD PUSH1 0xE5 SHL DUP2 MSTORE PUSH1 0x20 PUSH1 0x4 DUP3 ADD MSTORE PUSH1 0xE PUSH1 0x24 DUP3 ADD MSTORE PUSH14 0xAEE4DEDCCE40E6E8C2E4E892C8F PUSH1 0x93 SHL PUSH1 0x44 DUP3 ADD MSTORE PUSH1 0x64 ADD PUSH2 0x673 JUMP JUMPDEST PUSH1 0x0 DUP6 ISZERO PUSH2 0x1534 JUMPI PUSH1 0x1 PUSH2 0x1525 DUP8 DUP5 PUSH2 0x1DA8 JUMP JUMPDEST PUSH2 0x152F SWAP2 SWAP1 PUSH2 0x1E06 JUMP JUMPDEST PUSH2 0x1542 JUMP JUMPDEST PUSH1 0x1 DUP4 MLOAD PUSH2 0x1542 SWAP2 SWAP1 PUSH2 0x1E06 JUMP JUMPDEST SWAP1 POP DUP3 MLOAD DUP2 LT PUSH2 0x1584 JUMPI PUSH1 0x40 MLOAD PUSH3 0x461BCD PUSH1 0xE5 SHL DUP2 MSTORE PUSH1 0x20 PUSH1 0x4 DUP3 ADD MSTORE PUSH1 0xD PUSH1 0x24 DUP3 ADD MSTORE PUSH13 0xAEE4DEDCCE40E6E8DEE092C8F PUSH1 0x9B SHL PUSH1 0x44 DUP3 ADD MSTORE PUSH1 0x64 ADD PUSH2 0x673 JUMP JUMPDEST PUSH1 0x5 SLOAD DUP4 DUP3 DUP2 MLOAD DUP2 LT PUSH2 0x1599 JUMPI PUSH2 0x1599 PUSH2 0x1E1D JUMP JUMPDEST PUSH1 0x20 MUL PUSH1 0x20 ADD ADD MLOAD EQ ISZERO PUSH2 0x15F1 JUMPI PUSH1 0x0 DUP2 GT PUSH2 0x15E3 JUMPI PUSH1 0x40 MLOAD PUSH3 0x461BCD PUSH1 0xE5 SHL DUP2 MSTORE PUSH1 0x20 PUSH1 0x4 DUP3 ADD MSTORE PUSH1 0x9 PUSH1 0x24 DUP3 ADD MSTORE PUSH9 0x139BC81C995DD85C99 PUSH1 0xBA SHL PUSH1 0x44 DUP3 ADD MSTORE PUSH1 0x64 ADD PUSH2 0x673 JUMP JUMPDEST DUP1 PUSH2 0x15ED DUP2 PUSH2 0x1E33 JUMP JUMPDEST SWAP2 POP POP JUMPDEST PUSH2 0x15FC DUP2 PUSH1 0x1 PUSH2 0x1DA8 JUMP JUMPDEST SWAP4 POP DUP2 JUMPDEST DUP2 DUP2 GT PUSH2 0x1774 JUMPI PUSH1 0x0 DUP5 DUP3 DUP2 MLOAD DUP2 LT PUSH2 0x161B JUMPI PUSH2 0x161B PUSH2 0x1E1D JUMP JUMPDEST PUSH1 0x20 SWAP1 DUP2 MUL SWAP2 SWAP1 SWAP2 ADD DUP2 ADD MLOAD PUSH1 0x0 DUP2 DUP2 MSTORE PUSH1 0xC DUP4 MSTORE PUSH1 0x40 DUP1 DUP3 KECCAK256 CALLER DUP4 MSTORE DUP5 MSTORE DUP1 DUP3 KECCAK256 DUP4 DUP4 MSTORE PUSH1 0xB SWAP1 SWAP5 MSTORE SWAP1 KECCAK256 DUP3 SLOAD SWAP2 SWAP4 POP SWAP1 PUSH1 0xFF AND PUSH1 0x2 DUP2 GT ISZERO PUSH2 0x1661 JUMPI PUSH2 0x1661 PUSH2 0x1BBE JUMP JUMPDEST DUP2 SLOAD PUSH1 0xFF AND PUSH1 0x2 DUP2 GT ISZERO PUSH2 0x1677 JUMPI PUSH2 0x1677 PUSH2 0x1BBE JUMP JUMPDEST EQ ISZERO PUSH2 0x1724 JUMPI DUP1 SLOAD PUSH1 0x0 SWAP1 PUSH2 0x1690 SWAP1 DUP6 SWAP1 PUSH1 0xFF AND PUSH2 0x1A79 JUMP JUMPDEST SWAP1 POP PUSH1 0x0 PUSH1 0x1 DUP4 SLOAD PUSH1 0xFF AND PUSH1 0x2 DUP2 GT ISZERO PUSH2 0x16AC JUMPI PUSH2 0x16AC PUSH2 0x1BBE JUMP JUMPDEST EQ PUSH2 0x16B8 JUMPI PUSH1 0x1 PUSH2 0x16BB JUMP JUMPDEST PUSH1 0x2 JUMPDEST SWAP1 POP PUSH1 0x0 PUSH2 0x16C9 DUP7 DUP4 PUSH2 0x1AA5 JUMP JUMPDEST DUP5 SLOAD SWAP1 SWAP2 POP PUSH1 0x0 SWAP1 PUSH2 0x16DF SWAP1 DUP9 SWAP1 PUSH1 0xFF AND PUSH2 0x1AF0 JUMP JUMPDEST SWAP1 POP PUSH1 0x0 PUSH9 0x56BC75E2D63100000 DUP3 PUSH2 0x16F8 DUP6 DUP9 PUSH2 0x1DA8 JUMP JUMPDEST PUSH2 0x1702 SWAP2 SWAP1 PUSH2 0x1E4A JUMP JUMPDEST PUSH2 0x170C SWAP2 SWAP1 PUSH2 0x1E69 JUMP JUMPDEST SWAP1 POP PUSH2 0x1718 DUP2 DUP16 PUSH2 0x1DA8 JUMP JUMPDEST SWAP14 POP POP POP POP POP POP PUSH2 0x175E JUMP JUMPDEST PUSH1 0x0 DUP2 SLOAD PUSH1 0xFF AND PUSH1 0x2 DUP2 GT ISZERO PUSH2 0x173C JUMPI PUSH2 0x173C PUSH2 0x1BBE JUMP JUMPDEST EQ ISZERO PUSH2 0x175E JUMPI PUSH1 0x1 DUP3 ADD SLOAD ISZERO PUSH2 0x175E JUMPI PUSH1 0x1 DUP3 ADD SLOAD PUSH2 0x175B SWAP1 DUP11 PUSH2 0x1DA8 JUMP JUMPDEST SWAP9 POP JUMPDEST POP POP POP DUP1 DUP1 PUSH2 0x176C SWAP1 PUSH2 0x1E8B JUMP JUMPDEST SWAP2 POP POP PUSH2 0x1600 JUMP JUMPDEST POP POP POP POP SWAP2 POP SWAP2 JUMP JUMPDEST PUSH1 0x0 SLOAD PUSH1 0x1 PUSH1 0x1 PUSH1 0xA0 SHL SUB AND CALLER EQ PUSH2 0x17A7 JUMPI PUSH1 0x40 MLOAD PUSH3 0x461BCD PUSH1 0xE5 SHL DUP2 MSTORE PUSH1 0x4 ADD PUSH2 0x673 SWAP1 PUSH2 0x1D5D JUMP JUMPDEST PUSH1 0x1 PUSH1 0x1 PUSH1 0xA0 SHL SUB DUP2 AND PUSH2 0x180C JUMPI PUSH1 0x40 MLOAD PUSH3 0x461BCD PUSH1 0xE5 SHL DUP2 MSTORE PUSH1 0x20 PUSH1 0x4 DUP3 ADD MSTORE PUSH1 0x26 PUSH1 0x24 DUP3 ADD MSTORE PUSH32 0x4F776E61626C653A206E6577206F776E657220697320746865207A65726F2061 PUSH1 0x44 DUP3 ADD MSTORE PUSH6 0x646472657373 PUSH1 0xD0 SHL PUSH1 0x64 DUP3 ADD MSTORE PUSH1 0x84 ADD PUSH2 0x673 JUMP JUMPDEST PUSH2 0x1815 DUP2 PUSH2 0x1A29 JUMP JUMPDEST POP JUMP JUMPDEST PUSH1 0x0 PUSH2 0x1826 PUSH1 0x5 SLOAD DUP4 PUSH2 0x1191 JUMP JUMPDEST SWAP1 POP PUSH1 0x0 PUSH1 0x64 PUSH1 0x3 SLOAD DUP4 PUSH2 0x183A SWAP2 SWAP1 PUSH2 0x1E4A JUMP JUMPDEST PUSH2 0x1844 SWAP2 SWAP1 PUSH2 0x1E69 JUMP JUMPDEST SWAP1 POP PUSH1 0x40 MLOAD DUP1 PUSH1 0x40 ADD PUSH1 0x40 MSTORE DUP1 DUP5 PUSH1 0x2 DUP2 GT ISZERO PUSH2 0x1863 JUMPI PUSH2 0x1863 PUSH2 0x1BBE JUMP JUMPDEST DUP2 MSTORE PUSH1 0x20 SWAP1 DUP2 ADD DUP4 SWAP1 MSTORE PUSH1 0x5 SLOAD PUSH1 0x0 SWAP1 DUP2 MSTORE PUSH1 0xB SWAP1 SWAP2 MSTORE PUSH1 0x40 SWAP1 KECCAK256 DUP2 MLOAD DUP2 SLOAD DUP3 SWAP1 PUSH1 0xFF NOT AND PUSH1 0x1 DUP4 PUSH1 0x2 DUP2 GT ISZERO PUSH2 0x189C JUMPI PUSH2 0x189C PUSH2 0x1BBE JUMP JUMPDEST MUL OR SWAP1 SSTORE POP PUSH1 0x20 SWAP2 SWAP1 SWAP2 ADD MLOAD PUSH1 0x1 SWAP1 SWAP2 ADD SSTORE PUSH1 0x2 SLOAD PUSH1 0x40 MLOAD PUSH1 0x1 PUSH1 0x1 PUSH1 0xA0 SHL SUB SWAP1 SWAP2 AND SWAP1 DUP3 ISZERO PUSH2 0x8FC MUL SWAP1 DUP4 SWAP1 PUSH1 0x0 DUP2 DUP2 DUP2 DUP6 DUP9 DUP9 CALL SWAP4 POP POP POP POP ISZERO DUP1 ISZERO PUSH2 0x18E8 JUMPI RETURNDATASIZE PUSH1 0x0 DUP1 RETURNDATACOPY RETURNDATASIZE PUSH1 0x0 REVERT JUMPDEST POP PUSH1 0x2 SLOAD PUSH1 0x40 DUP1 MLOAD PUSH1 0x1 PUSH1 0x1 PUSH1 0xA0 SHL SUB SWAP1 SWAP3 AND DUP3 MSTORE PUSH1 0x20 DUP3 ADD DUP4 SWAP1 MSTORE PUSH32 0xEB5F9D0F77CA1B4235DA3A889DF2E60673BCF3CDB66C14B903940A7C8F301367 SWAP2 ADD PUSH2 0xDE9 JUMP JUMPDEST PUSH1 0x0 PUSH2 0x193A PUSH1 0x5 SLOAD DUP4 PUSH2 0x1191 JUMP JUMPDEST SWAP1 POP DUP1 PUSH2 0x1945 JUMPI POP POP JUMP JUMPDEST PUSH1 0x0 PUSH1 0x2 PUSH1 0x64 PUSH1 0x4 SLOAD DUP5 PUSH2 0x1959 SWAP2 SWAP1 PUSH2 0x1E4A JUMP JUMPDEST PUSH2 0x1963 SWAP2 SWAP1 PUSH2 0x1E69 JUMP JUMPDEST PUSH2 0x196D SWAP2 SWAP1 PUSH2 0x1E69 JUMP JUMPDEST SWAP1 POP DUP1 PUSH1 0xD PUSH1 0x0 PUSH1 0x5 SLOAD PUSH1 0x1 PUSH2 0x1983 SWAP2 SWAP1 PUSH2 0x1DA8 JUMP JUMPDEST DUP2 MSTORE PUSH1 0x20 ADD SWAP1 DUP2 MSTORE PUSH1 0x20 ADD PUSH1 0x0 KECCAK256 PUSH1 0x0 PUSH1 0x1 PUSH1 0x2 DUP2 GT ISZERO PUSH2 0x19A6 JUMPI PUSH2 0x19A6 PUSH2 0x1BBE JUMP JUMPDEST PUSH1 0x2 DUP2 GT ISZERO PUSH2 0x19B7 JUMPI PUSH2 0x19B7 PUSH2 0x1BBE JUMP JUMPDEST DUP2 MSTORE PUSH1 0x20 ADD SWAP1 DUP2 MSTORE PUSH1 0x20 ADD PUSH1 0x0 KECCAK256 PUSH1 0x0 ADD DUP2 SWAP1 SSTORE POP DUP1 PUSH1 0xD PUSH1 0x0 PUSH1 0x5 SLOAD PUSH1 0x1 PUSH2 0x19E0 SWAP2 SWAP1 PUSH2 0x1DA8 JUMP JUMPDEST DUP2 MSTORE PUSH1 0x20 ADD SWAP1 DUP2 MSTORE PUSH1 0x20 ADD PUSH1 0x0 KECCAK256 PUSH1 0x0 PUSH1 0x2 DUP1 DUP2 GT ISZERO PUSH2 0x1A02 JUMPI PUSH2 0x1A02 PUSH2 0x1BBE JUMP JUMPDEST PUSH1 0x2 DUP2 GT ISZERO PUSH2 0x1A13 JUMPI PUSH2 0x1A13 PUSH2 0x1BBE JUMP JUMPDEST DUP2 MSTORE PUSH1 0x20 DUP2 ADD SWAP2 SWAP1 SWAP2 MSTORE PUSH1 0x40 ADD PUSH1 0x0 KECCAK256 SSTORE POP POP POP JUMP JUMPDEST PUSH1 0x0 DUP1 SLOAD PUSH1 0x1 PUSH1 0x1 PUSH1 0xA0 SHL SUB DUP4 DUP2 AND PUSH1 0x1 PUSH1 0x1 PUSH1 0xA0 SHL SUB NOT DUP4 AND DUP2 OR DUP5 SSTORE PUSH1 0x40 MLOAD SWAP2 SWAP1 SWAP3 AND SWAP3 DUP4 SWAP2 PUSH32 0x8BE0079C531659141344CD1FD0A4F28419497F9722A3DAAFE3B4186F6B6457E0 SWAP2 SWAP1 LOG3 POP POP JUMP JUMPDEST PUSH1 0x0 DUP1 PUSH2 0x1A86 DUP5 DUP5 PUSH2 0x1191 JUMP JUMPDEST PUSH1 0x0 DUP6 DUP2 MSTORE PUSH1 0xB PUSH1 0x20 MSTORE PUSH1 0x40 SWAP1 KECCAK256 PUSH1 0x1 ADD SLOAD SWAP1 SWAP2 POP PUSH2 0x129C DUP2 DUP4 PUSH2 0x1E06 JUMP JUMPDEST PUSH1 0x0 DUP1 PUSH2 0x1AB2 DUP5 DUP5 PUSH2 0x1191 JUMP JUMPDEST SWAP1 POP DUP1 PUSH2 0x1AC3 JUMPI PUSH1 0x0 SWAP2 POP POP PUSH2 0x118B JUMP JUMPDEST PUSH1 0x64 PUSH1 0x4 SLOAD PUSH1 0x64 PUSH2 0x1AD4 SWAP2 SWAP1 PUSH2 0x1E06 JUMP JUMPDEST PUSH2 0x1ADE SWAP1 DUP4 PUSH2 0x1E4A JUMP JUMPDEST PUSH2 0x1AE8 SWAP2 SWAP1 PUSH2 0x1E69 JUMP JUMPDEST SWAP5 SWAP4 POP POP POP POP JUMP JUMPDEST PUSH1 0x0 DUP3 DUP2 MSTORE PUSH1 0xD PUSH1 0x20 MSTORE PUSH1 0x40 DUP2 KECCAK256 DUP2 DUP4 PUSH1 0x2 DUP2 GT ISZERO PUSH2 0x1B11 JUMPI PUSH2 0x1B11 PUSH2 0x1BBE JUMP JUMPDEST PUSH1 0x2 DUP2 GT ISZERO PUSH2 0x1B22 JUMPI PUSH2 0x1B22 PUSH2 0x1BBE JUMP JUMPDEST DUP2 MSTORE PUSH1 0x20 DUP1 DUP3 ADD SWAP3 SWAP1 SWAP3 MSTORE PUSH1 0x40 SWAP1 DUP2 ADD PUSH1 0x0 SWAP1 DUP2 KECCAK256 PUSH1 0x1 SWAP1 DUP2 ADD SLOAD DUP8 DUP4 MSTORE PUSH1 0xC DUP6 MSTORE DUP4 DUP4 KECCAK256 CALLER DUP5 MSTORE SWAP1 SWAP5 MSTORE SWAP2 SWAP1 KECCAK256 ADD SLOAD PUSH2 0x1B65 SWAP1 PUSH9 0x56BC75E2D63100000 PUSH2 0x1E4A JUMP JUMPDEST PUSH2 0x1B6F SWAP2 SWAP1 PUSH2 0x1E69 JUMP JUMPDEST SWAP4 SWAP3 POP POP POP JUMP JUMPDEST DUP1 CALLDATALOAD PUSH1 0x1 PUSH1 0x1 PUSH1 0xA0 SHL SUB DUP2 AND DUP2 EQ PUSH2 0x1B8D JUMPI PUSH1 0x0 DUP1 REVERT JUMPDEST SWAP2 SWAP1 POP JUMP JUMPDEST PUSH1 0x0 DUP1 PUSH1 0x40 DUP4 DUP6 SUB SLT ISZERO PUSH2 0x1BA5 JUMPI PUSH1 0x0 DUP1 REVERT JUMPDEST DUP3 CALLDATALOAD SWAP2 POP PUSH2 0x1BB5 PUSH1 0x20 DUP5 ADD PUSH2 0x1B76 JUMP JUMPDEST SWAP1 POP SWAP3 POP SWAP3 SWAP1 POP JUMP JUMPDEST PUSH4 0x4E487B71 PUSH1 0xE0 SHL PUSH1 0x0 MSTORE PUSH1 0x21 PUSH1 0x4 MSTORE PUSH1 0x24 PUSH1 0x0 REVERT JUMPDEST PUSH1 0x3 DUP2 LT PUSH2 0x1BF2 JUMPI PUSH4 0x4E487B71 PUSH1 0xE0 SHL PUSH1 0x0 MSTORE PUSH1 0x21 PUSH1 0x4 MSTORE PUSH1 0x24 PUSH1 0x0 REVERT JUMPDEST SWAP1 MSTORE JUMP JUMPDEST PUSH1 0x0 PUSH1 0x40 DUP3 ADD SWAP1 POP PUSH2 0x1C09 DUP3 DUP5 MLOAD PUSH2 0x1BD4 JUMP JUMPDEST PUSH1 0x20 SWAP3 DUP4 ADD MLOAD SWAP2 SWAP1 SWAP3 ADD MSTORE SWAP1 JUMP JUMPDEST PUSH1 0x0 PUSH1 0x20 DUP3 DUP5 SUB SLT ISZERO PUSH2 0x1C29 JUMPI PUSH1 0x0 DUP1 REVERT JUMPDEST POP CALLDATALOAD SWAP2 SWAP1 POP JUMP JUMPDEST PUSH1 0x40 DUP2 ADD PUSH2 0x1C3E DUP3 DUP6 PUSH2 0x1BD4 JUMP JUMPDEST DUP3 PUSH1 0x20 DUP4 ADD MSTORE SWAP4 SWAP3 POP POP POP JUMP JUMPDEST DUP1 CALLDATALOAD PUSH1 0x3 DUP2 LT PUSH2 0x1B8D JUMPI PUSH1 0x0 DUP1 REVERT JUMPDEST PUSH1 0x0 DUP1 PUSH1 0x40 DUP4 DUP6 SUB SLT ISZERO PUSH2 0x1C6D JUMPI PUSH1 0x0 DUP1 REVERT JUMPDEST DUP3 CALLDATALOAD SWAP2 POP PUSH2 0x1BB5 PUSH1 0x20 DUP5 ADD PUSH2 0x1C4B JUMP JUMPDEST PUSH1 0x20 DUP1 DUP3 MSTORE DUP3 MLOAD DUP3 DUP3 ADD DUP2 SWAP1 MSTORE PUSH1 0x0 SWAP2 SWAP1 DUP5 DUP3 ADD SWAP1 PUSH1 0x40 DUP6 ADD SWAP1 DUP5 JUMPDEST DUP2 DUP2 LT ISZERO PUSH2 0x1CBE JUMPI DUP4 MLOAD PUSH1 0x1 PUSH1 0x1 PUSH1 0xA0 SHL SUB AND DUP4 MSTORE SWAP3 DUP5 ADD SWAP3 SWAP2 DUP5 ADD SWAP2 PUSH1 0x1 ADD PUSH2 0x1C99 JUMP JUMPDEST POP SWAP1 SWAP7 SWAP6 POP POP POP POP POP POP JUMP JUMPDEST PUSH1 0x0 PUSH1 0x20 DUP3 DUP5 SUB SLT ISZERO PUSH2 0x1CDC JUMPI PUSH1 0x0 DUP1 REVERT JUMPDEST PUSH2 0x1B6F DUP3 PUSH2 0x1C4B JUMP JUMPDEST PUSH1 0x0 PUSH1 0x20 DUP3 DUP5 SUB SLT ISZERO PUSH2 0x1CF7 JUMPI PUSH1 0x0 DUP1 REVERT JUMPDEST PUSH2 0x1B6F DUP3 PUSH2 0x1B76 JUMP JUMPDEST PUSH1 0x20 DUP1 DUP3 MSTORE DUP3 MLOAD DUP3 DUP3 ADD DUP2 SWAP1 MSTORE PUSH1 0x0 SWAP2 SWAP1 DUP5 DUP3 ADD SWAP1 PUSH1 0x40 DUP6 ADD SWAP1 DUP5 JUMPDEST DUP2 DUP2 LT ISZERO PUSH2 0x1CBE JUMPI DUP4 MLOAD DUP4 MSTORE SWAP3 DUP5 ADD SWAP3 SWAP2 DUP5 ADD SWAP2 PUSH1 0x1 ADD PUSH2 0x1D1C JUMP JUMPDEST PUSH1 0x20 DUP1 DUP3 MSTORE PUSH1 0xB SWAP1 DUP3 ADD MSTORE PUSH11 0xAEE4DEDCCE40CAE0DEC6D PUSH1 0xAB SHL PUSH1 0x40 DUP3 ADD MSTORE PUSH1 0x60 ADD SWAP1 JUMP JUMPDEST PUSH1 0x20 DUP1 DUP3 MSTORE DUP2 DUP2 ADD MSTORE PUSH32 0x4F776E61626C653A2063616C6C6572206973206E6F7420746865206F776E6572 PUSH1 0x40 DUP3 ADD MSTORE PUSH1 0x60 ADD SWAP1 JUMP JUMPDEST PUSH4 0x4E487B71 PUSH1 0xE0 SHL PUSH1 0x0 MSTORE PUSH1 0x11 PUSH1 0x4 MSTORE PUSH1 0x24 PUSH1 0x0 REVERT JUMPDEST PUSH1 0x0 DUP3 NOT DUP3 GT ISZERO PUSH2 0x1DBB JUMPI PUSH2 0x1DBB PUSH2 0x1D92 JUMP JUMPDEST POP ADD SWAP1 JUMP JUMPDEST PUSH1 0x20 DUP1 DUP3 MSTORE PUSH1 0xA SWAP1 DUP3 ADD MSTORE PUSH10 0x15DC9BDB99C81C1BDBDB PUSH1 0xB2 SHL PUSH1 0x40 DUP3 ADD MSTORE PUSH1 0x60 ADD SWAP1 JUMP JUMPDEST PUSH1 0x0 PUSH1 0x20 DUP3 DUP5 SUB SLT ISZERO PUSH2 0x1DF6 JUMPI PUSH1 0x0 DUP1 REVERT JUMPDEST DUP2 MLOAD DUP1 ISZERO ISZERO DUP2 EQ PUSH2 0x1B6F JUMPI PUSH1 0x0 DUP1 REVERT JUMPDEST PUSH1 0x0 DUP3 DUP3 LT ISZERO PUSH2 0x1E18 JUMPI PUSH2 0x1E18 PUSH2 0x1D92 JUMP JUMPDEST POP SUB SWAP1 JUMP JUMPDEST PUSH4 0x4E487B71 PUSH1 0xE0 SHL PUSH1 0x0 MSTORE PUSH1 0x32 PUSH1 0x4 MSTORE PUSH1 0x24 PUSH1 0x0 REVERT JUMPDEST PUSH1 0x0 DUP2 PUSH2 0x1E42 JUMPI PUSH2 0x1E42 PUSH2 0x1D92 JUMP JUMPDEST POP PUSH1 0x0 NOT ADD SWAP1 JUMP JUMPDEST PUSH1 0x0 DUP2 PUSH1 0x0 NOT DIV DUP4 GT DUP3 ISZERO ISZERO AND ISZERO PUSH2 0x1E64 JUMPI PUSH2 0x1E64 PUSH2 0x1D92 JUMP JUMPDEST POP MUL SWAP1 JUMP JUMPDEST PUSH1 0x0 DUP3 PUSH2 0x1E86 JUMPI PUSH4 0x4E487B71 PUSH1 0xE0 SHL PUSH1 0x0 MSTORE PUSH1 0x12 PUSH1 0x4 MSTORE PUSH1 0x24 PUSH1 0x0 REVERT JUMPDEST POP DIV SWAP1 JUMP JUMPDEST PUSH1 0x0 PUSH1 0x0 NOT DUP3 EQ ISZERO PUSH2 0x1E9F JUMPI PUSH2 0x1E9F PUSH2 0x1D92 JUMP JUMPDEST POP PUSH1 0x1 ADD SWAP1 JUMP INVALID LOG2 PUSH5 0x6970667358 0x22 SLT KECCAK256 PUSH13 0x97D92B61716CCA713C2C9D40E1 0xFC 0xE3 0x29 0xCC PUSH9 0xCD28DF74921AD6EFF5 0xED DUP1 PUSH1 0xCB PUSH5 0x736F6C6343 STOP ADDMOD MULMOD STOP CALLER "
		},
		"gasEstimates": {
			"creation": {
				"codeDepositCost": "1580000",
				"executionCost": "infinite",
				"totalCost": "infinite"
			},
			"external": {
				"calculatePendingReward(uint256)": "infinite",
				"currentEpoch()": "2385",
				"currentEpochStartedAt()": "2406",
				"devFeePercentage()": "2383",
				"devFeeReceiver()": "2403",
				"epochDuration()": "2385",
				"epochResult(uint256)": "4763",
				"finishEpoch()": "infinite",
				"getEpochListForVoter(address)": "infinite",
				"getPoolBalance(uint256,uint8)": "7304",
				"getPoolBalanceTotal(uint256,uint8)": "7424",
				"getVoteForVoter(uint256,address)": "7246",
				"getVotersCountForPool(uint256,uint8)": "infinite",
				"getVotersForPool(uint256,uint8)": "infinite",
				"indexToStartCalculationsForVoter(address)": "2587",
				"kill()": "29945",
				"makeVote(uint8)": "infinite",
				"minStake()": "2341",
				"owner()": "2398",
				"pendingVersusTokenBonus(address)": "2586",
				"poolLoserBalanceToNextEpochPercentage()": "2340",
				"renounceOwnership()": "28160",
				"transferOwnership(address)": "28419",
				"updateDevFeePercentage(uint256)": "24610",
				"updateDevFeeReceiver(address)": "26813",
				"updateEpochDuration(uint256)": "24556",
				"updateMinStake(uint256)": "24532",
				"updatePoolLoserBalanceToNextEpochPercentage(uint256)": "24632",
				"updateVersusBonus(uint256)": "24577",
				"versusBonus()": "2341",
				"versusToken()": "2426",
				"withdrawPendingReward(uint256)": "infinite"
			},
			"internal": {
				"_calculateRewardPoolLoserForEpoch(uint256,enum VersusVoting.Pool)": "infinite",
				"_calculateRewardPoolWinnerForEpoch(uint256,enum VersusVoting.Pool)": "infinite",
				"performCalculationsForPoolLoser(enum VersusVoting.Pool)": "infinite",
				"performCalculationsForPoolWinner(enum VersusVoting.Pool)": "infinite",
				"stakePortionFor(uint256,enum VersusVoting.Pool)": "4745"
			}
		},
		"methodIdentifiers": {
			"calculatePendingReward(uint256)": "d430e34a",
			"currentEpoch()": "76671808",
			"currentEpochStartedAt()": "d0841f22",
			"devFeePercentage()": "e884269a",
			"devFeeReceiver()": "dab84ee7",
			"epochDuration()": "4ff0876a",
			"epochResult(uint256)": "313d2ffd",
			"finishEpoch()": "48e72aa9",
			"getEpochListForVoter(address)": "ac427a66",
			"getPoolBalance(uint256,uint8)": "5b75e3f3",
			"getPoolBalanceTotal(uint256,uint8)": "a424e9a3",
			"getVoteForVoter(uint256,address)": "0e88bf9c",
			"getVotersCountForPool(uint256,uint8)": "9d979680",
			"getVotersForPool(uint256,uint8)": "4c14f0e5",
			"indexToStartCalculationsForVoter(address)": "7578abb2",
			"kill()": "41c0e1b5",
			"makeVote(uint8)": "4fae031b",
			"minStake()": "375b3c0a",
			"owner()": "8da5cb5b",
			"pendingVersusTokenBonus(address)": "6655ad41",
			"poolLoserBalanceToNextEpochPercentage()": "65d5426e",
			"renounceOwnership()": "715018a6",
			"transferOwnership(address)": "f2fde38b",
			"updateDevFeePercentage(uint256)": "c2ce5e9a",
			"updateDevFeeReceiver(address)": "b217b2ca",
			"updateEpochDuration(uint256)": "2a5d2cd0",
			"updateMinStake(uint256)": "8cdb442f",
			"updatePoolLoserBalanceToNextEpochPercentage(uint256)": "680f7749",
			"updateVersusBonus(uint256)": "33beadbe",
			"versusBonus()": "4c66c039",
			"versusToken()": "66f0d43d",
			"withdrawPendingReward(uint256)": "79db71b8"
		}
	},
	"abi": [
		{
			"inputs": [
				{
					"internalType": "address",
					"name": "_devFeeReceiver",
					"type": "address"
				},
				{
					"internalType": "address",
					"name": "_versusToken",
					"type": "address"
				}
			],
			"stateMutability": "nonpayable",
			"type": "constructor"
		},
		{
			"anonymous": false,
			"inputs": [
				{
					"indexed": false,
					"internalType": "address",
					"name": "to",
					"type": "address"
				},
				{
					"indexed": false,
					"internalType": "uint256",
					"name": "amount",
					"type": "uint256"
				}
			],
			"name": "DevFeeTransferred",
			"type": "event"
		},
		{
			"anonymous": false,
			"inputs": [
				{
					"indexed": false,
					"internalType": "uint256",
					"name": "epoch",
					"type": "uint256"
				}
			],
			"name": "EpochFinished",
			"type": "event"
		},
		{
			"anonymous": false,
			"inputs": [
				{
					"indexed": true,
					"internalType": "address",
					"name": "previousOwner",
					"type": "address"
				},
				{
					"indexed": true,
					"internalType": "address",
					"name": "newOwner",
					"type": "address"
				}
			],
			"name": "OwnershipTransferred",
			"type": "event"
		},
		{
			"anonymous": false,
			"inputs": [
				{
					"indexed": false,
					"internalType": "uint8",
					"name": "pool",
					"type": "uint8"
				},
				{
					"indexed": false,
					"internalType": "address",
					"name": "voter",
					"type": "address"
				},
				{
					"indexed": false,
					"internalType": "uint256",
					"name": "amount",
					"type": "uint256"
				}
			],
			"name": "Voted",
			"type": "event"
		},
		{
			"inputs": [
				{
					"internalType": "uint256",
					"name": "_loopLimit",
					"type": "uint256"
				}
			],
			"name": "calculatePendingReward",
			"outputs": [
				{
					"internalType": "uint256",
					"name": "amount",
					"type": "uint256"
				},
				{
					"internalType": "uint256",
					"name": "updatedStartIdx",
					"type": "uint256"
				}
			],
			"stateMutability": "view",
			"type": "function"
		},
		{
			"inputs": [],
			"name": "currentEpoch",
			"outputs": [
				{
					"internalType": "uint256",
					"name": "",
					"type": "uint256"
				}
			],
			"stateMutability": "view",
			"type": "function"
		},
		{
			"inputs": [],
			"name": "currentEpochStartedAt",
			"outputs": [
				{
					"internalType": "uint256",
					"name": "",
					"type": "uint256"
				}
			],
			"stateMutability": "view",
			"type": "function"
		},
		{
			"inputs": [],
			"name": "devFeePercentage",
			"outputs": [
				{
					"internalType": "uint256",
					"name": "",
					"type": "uint256"
				}
			],
			"stateMutability": "view",
			"type": "function"
		},
		{
			"inputs": [],
			"name": "devFeeReceiver",
			"outputs": [
				{
					"internalType": "address payable",
					"name": "",
					"type": "address"
				}
			],
			"stateMutability": "view",
			"type": "function"
		},
		{
			"inputs": [],
			"name": "epochDuration",
			"outputs": [
				{
					"internalType": "uint256",
					"name": "",
					"type": "uint256"
				}
			],
			"stateMutability": "view",
			"type": "function"
		},
		{
			"inputs": [
				{
					"internalType": "uint256",
					"name": "",
					"type": "uint256"
				}
			],
			"name": "epochResult",
			"outputs": [
				{
					"internalType": "enum VersusVoting.Pool",
					"name": "poolWinner",
					"type": "uint8"
				},
				{
					"internalType": "uint256",
					"name": "devFee",
					"type": "uint256"
				}
			],
			"stateMutability": "view",
			"type": "function"
		},
		{
			"inputs": [],
			"name": "finishEpoch",
			"outputs": [],
			"stateMutability": "nonpayable",
			"type": "function"
		},
		{
			"inputs": [
				{
					"internalType": "address",
					"name": "_address",
					"type": "address"
				}
			],
			"name": "getEpochListForVoter",
			"outputs": [
				{
					"internalType": "uint256[]",
					"name": "",
					"type": "uint256[]"
				}
			],
			"stateMutability": "view",
			"type": "function"
		},
		{
			"inputs": [
				{
					"internalType": "uint256",
					"name": "_epoch",
					"type": "uint256"
				},
				{
					"internalType": "enum VersusVoting.Pool",
					"name": "_pool",
					"type": "uint8"
				}
			],
			"name": "getPoolBalance",
			"outputs": [
				{
					"components": [
						{
							"internalType": "uint256",
							"name": "startedWith",
							"type": "uint256"
						},
						{
							"internalType": "uint256",
							"name": "staked",
							"type": "uint256"
						}
					],
					"internalType": "struct VersusVoting.PoolBalance",
					"name": "",
					"type": "tuple"
				}
			],
			"stateMutability": "view",
			"type": "function"
		},
		{
			"inputs": [
				{
					"internalType": "uint256",
					"name": "_epoch",
					"type": "uint256"
				},
				{
					"internalType": "enum VersusVoting.Pool",
					"name": "_pool",
					"type": "uint8"
				}
			],
			"name": "getPoolBalanceTotal",
			"outputs": [
				{
					"internalType": "uint256",
					"name": "",
					"type": "uint256"
				}
			],
			"stateMutability": "view",
			"type": "function"
		},
		{
			"inputs": [
				{
					"internalType": "uint256",
					"name": "_epoch",
					"type": "uint256"
				},
				{
					"internalType": "address",
					"name": "_address",
					"type": "address"
				}
			],
			"name": "getVoteForVoter",
			"outputs": [
				{
					"components": [
						{
							"internalType": "enum VersusVoting.Pool",
							"name": "pool",
							"type": "uint8"
						},
						{
							"internalType": "uint256",
							"name": "stake",
							"type": "uint256"
						}
					],
					"internalType": "struct VersusVoting.Vote",
					"name": "",
					"type": "tuple"
				}
			],
			"stateMutability": "view",
			"type": "function"
		},
		{
			"inputs": [
				{
					"internalType": "uint256",
					"name": "_epoch",
					"type": "uint256"
				},
				{
					"internalType": "enum VersusVoting.Pool",
					"name": "_pool",
					"type": "uint8"
				}
			],
			"name": "getVotersCountForPool",
			"outputs": [
				{
					"internalType": "uint256",
					"name": "",
					"type": "uint256"
				}
			],
			"stateMutability": "view",
			"type": "function"
		},
		{
			"inputs": [
				{
					"internalType": "uint256",
					"name": "_epoch",
					"type": "uint256"
				},
				{
					"internalType": "enum VersusVoting.Pool",
					"name": "_pool",
					"type": "uint8"
				}
			],
			"name": "getVotersForPool",
			"outputs": [
				{
					"internalType": "address[]",
					"name": "",
					"type": "address[]"
				}
			],
			"stateMutability": "view",
			"type": "function"
		},
		{
			"inputs": [
				{
					"internalType": "address",
					"name": "",
					"type": "address"
				}
			],
			"name": "indexToStartCalculationsForVoter",
			"outputs": [
				{
					"internalType": "uint256",
					"name": "",
					"type": "uint256"
				}
			],
			"stateMutability": "view",
			"type": "function"
		},
		{
			"inputs": [],
			"name": "kill",
			"outputs": [],
			"stateMutability": "nonpayable",
			"type": "function"
		},
		{
			"inputs": [
				{
					"internalType": "enum VersusVoting.Pool",
					"name": "_pool",
					"type": "uint8"
				}
			],
			"name": "makeVote",
			"outputs": [],
			"stateMutability": "payable",
			"type": "function"
		},
		{
			"inputs": [],
			"name": "minStake",
			"outputs": [
				{
					"internalType": "uint256",
					"name": "",
					"type": "uint256"
				}
			],
			"stateMutability": "view",
			"type": "function"
		},
		{
			"inputs": [],
			"name": "owner",
			"outputs": [
				{
					"internalType": "address",
					"name": "",
					"type": "address"
				}
			],
			"stateMutability": "view",
			"type": "function"
		},
		{
			"inputs": [
				{
					"internalType": "address",
					"name": "",
					"type": "address"
				}
			],
			"name": "pendingVersusTokenBonus",
			"outputs": [
				{
					"internalType": "uint256",
					"name": "",
					"type": "uint256"
				}
			],
			"stateMutability": "view",
			"type": "function"
		},
		{
			"inputs": [],
			"name": "poolLoserBalanceToNextEpochPercentage",
			"outputs": [
				{
					"internalType": "uint256",
					"name": "",
					"type": "uint256"
				}
			],
			"stateMutability": "view",
			"type": "function"
		},
		{
			"inputs": [],
			"name": "renounceOwnership",
			"outputs": [],
			"stateMutability": "nonpayable",
			"type": "function"
		},
		{
			"inputs": [
				{
					"internalType": "address",
					"name": "newOwner",
					"type": "address"
				}
			],
			"name": "transferOwnership",
			"outputs": [],
			"stateMutability": "nonpayable",
			"type": "function"
		},
		{
			"inputs": [
				{
					"internalType": "uint256",
					"name": "_percentage",
					"type": "uint256"
				}
			],
			"name": "updateDevFeePercentage",
			"outputs": [],
			"stateMutability": "nonpayable",
			"type": "function"
		},
		{
			"inputs": [
				{
					"internalType": "address",
					"name": "_address",
					"type": "address"
				}
			],
			"name": "updateDevFeeReceiver",
			"outputs": [],
			"stateMutability": "nonpayable",
			"type": "function"
		},
		{
			"inputs": [
				{
					"internalType": "uint256",
					"name": "_duration",
					"type": "uint256"
				}
			],
			"name": "updateEpochDuration",
			"outputs": [],
			"stateMutability": "nonpayable",
			"type": "function"
		},
		{
			"inputs": [
				{
					"internalType": "uint256",
					"name": "_minStake",
					"type": "uint256"
				}
			],
			"name": "updateMinStake",
			"outputs": [],
			"stateMutability": "nonpayable",
			"type": "function"
		},
		{
			"inputs": [
				{
					"internalType": "uint256",
					"name": "_percentage",
					"type": "uint256"
				}
			],
			"name": "updatePoolLoserBalanceToNextEpochPercentage",
			"outputs": [],
			"stateMutability": "nonpayable",
			"type": "function"
		},
		{
			"inputs": [
				{
					"internalType": "uint256",
					"name": "_amount",
					"type": "uint256"
				}
			],
			"name": "updateVersusBonus",
			"outputs": [],
			"stateMutability": "nonpayable",
			"type": "function"
		},
		{
			"inputs": [],
			"name": "versusBonus",
			"outputs": [
				{
					"internalType": "uint256",
					"name": "",
					"type": "uint256"
				}
			],
			"stateMutability": "view",
			"type": "function"
		},
		{
			"inputs": [],
			"name": "versusToken",
			"outputs": [
				{
					"internalType": "address",
					"name": "",
					"type": "address"
				}
			],
			"stateMutability": "view",
			"type": "function"
		},
		{
			"inputs": [
				{
					"internalType": "uint256",
					"name": "_loopLimit",
					"type": "uint256"
				}
			],
			"name": "withdrawPendingReward",
			"outputs": [],
			"stateMutability": "nonpayable",
			"type": "function"
		}
	]
}